:1000000088C800204DAA0000E9AA0000B7F9000046
:10001000E9AA0000E9AA0000B5F90000000000000C
:1000200000000000000000000000000011FB0000C4
:10003000E9AA000000000000E9AA0000E9AA000007
:10004000E9AA0000E9AA0000E9AA0000E9AA000064
:10005000E9AA0000E9AA0000E9AA0000E9AA000054
:10006000E9AA0000E9AA0000E9AA0000E9AA000044
:10007000E9AA0000E9AA0000E9AA0000E9AA000034
:10008000E9AA0000E9AA0000E9AA0000E9AA000024
:10009000E9AA0000E9AA0000E9AA0000E9AA000014
:1000A000E9AA0000E9AA0000E9AA0000E9AA000004
:1000B000E9AA00007927000095270000E9AA0000BE
:1000C000E9AA0000E9AA0000E9AA0000E9AA0000E4
:1000D000E9AA0000E9AA0000E9AA0000E9AA0000D4
:1000E000E9AA0000E9AA00000000000000000000EA
:1000F000000000002DA80000E9AA0000E9AA000005
:10010000E9AA0000E9AA0000E9AA0000E9AA0000A3
:10011000E9AA0000E9AA0000E9AA0000E9AA000093
:10012000E9AA0000E9AA0000E9AA0000E9AA000083
:10013000E9AA0000E9AA0000E9AA0000E9AA000073
:10014000E9AA0000E9AA0000E9AA0000E9AA000063
:10015000E9AA0000E9AA0000000000000000000079
:10016000000000000000000000000000000000008F
:10017000000000000000000000000000000000007F
:1001800091720000A1720000B1720000C172000003
:1001900000000000E9AA0000E9AA0000E9AA0000A6
:1001A000E9AA0000E9AA0000E9AA0000E9AA000003
:1001B000E9AA0000E9AA0000E9AA0000E9AA0000F3
:1001C000E9AA0000E9AA0000E9AA0000E9AA0000E3
:1001D000E9AA00000000000000000000000000008C
:1001E000000000000000000000000000E9AA00007C
:1001F000E9AA0000E9AA0000E9AA00000000000046
:10020000000000000000000000000000E9AA00005B
:10021000E9AA0000E9AA0000E9AA0000E9AA000092
:10022000E9AA0000E9AA0000E9AA0000E9AA000082
:10023000E9AA0000E9AA0000E9AA0000E9AA000072
:1002400000000000E9AA0000E9AA0000E9AA0000F5
:10025000E9AA0000E9AA0000E9AA0000E9AA000052
:10026000000000000348044B834202D0034B03B15B
:10027000184770473C2901003C290100000000009C
:1002800005480649091A891001EBD171491002D0BD
:10029000034B03B1184770473C2901003C2901007A
:1002A0000000000010B5064C237843B9FFF7DAFFD1
:1002B000044B13B10448AFF300800123237010BD39
:1002C00090000020000000003C29010008B5044B0C
:1002D0001BB104490448AFF30080BDE80840CFE7F4
:1002E00000000000940000203C29010080B584B08B
:1002F00000AFF860B9601346FB80FB68002B04D0A8
:10030000BB68002B01D0012300E0002303F00103B0
:10031000DBB2342207491846074B9847FB681B6835
:10032000FA88B968F8689847034618461037BD46FA
:1003300080BD00BF6C1C0100C77B000080B584B08D
:1003400000AFF860B9601346FB80FB68002B04D057
:10035000BB68002B01D0012300E0002303F0010360
:10036000DBB23D2207491846074B9847FB685B689C
:10037000FA88B968F8689847034618461037BD46AA
:1003800080BD00BF6C1C0100C77B000080B582B03F
:1003900000AF78600A4B1B689B6800211846094B28
:1003A0009847074B1B685B6800211846054B984728
:1003B000054A7B68136000BF0837BD4680BD00BF9B
:1003C000280000203D020100AC00002080B582B072
:1003D00000AF78603960094B1B68002B01D1002306
:1003E00008E0064B1B683A6892B279681846044BDD
:1003F0009847034618460837BD4680BDAC0000202C
:100400003D03000080B582B000AF78603960094BD1
:100410001B68002B01D1002308E0064B1B683A68DB
:1004200092B279681846044B984703461846083735
:10043000BD4680BDAC000020ED02000080B483B05A
:1004400000AF7860064B6FF07F425A60044B052284
:100450001A6000BF0C37BD465DF8047B704700BFD3
:1004600010E000E080B582B000AF78607868034BA0
:10047000984700BF0837BD4680BD00BF3D0400005F
:1004800080B485B000AF786039603B681B0EFB73A9
:100490003B68BB6013E0164B6FF07F425A60144B11
:1004A0006FF07F429A6000BF114B1B6803F48033EA
:1004B000002BF9D0BB6803F17F430133BB60FB7BAA
:1004C0005A1EFA73002BE6D1094ABB685360084AEA
:1004D000BB68936000BF064B1B6803F48033002B9E
:1004E000F9D000BF1437BD465DF8047B704700BFEC
:1004F00010E000E080B483B000AF78607B681B78C8
:1005000018460C37BD465DF8047B704780B582B055
:1005100000AF78607868054B984703461A467B68B9
:10052000134418460837BD4680BD00BFF5040000DF
:1005300090B587B004AF7860084611461A46034666
:10054000FB700B46BB7013463B803888BA78F9784D
:1005500097F82430039397F8203002933B7F019360
:100560003B7E009303467868034CA0470346184639
:100570000C37BD4690BD00BF2D61000080B582B034
:1005800000AF78607868034B9847034618460837F1
:10059000BD4680BD2564000080B582B000AF7860A4
:1005A000396039687868034B98470346184608371E
:1005B000BD4680BDA566000090B585B000AFF8606F
:1005C000B9607A60FB70FB787A68B968F868034CA8
:1005D000A047034618461437BD4690BD8D6F0000F6
:1005E00080B582B000AF78607868034B984700BF51
:1005F0000837BD4680BD00BF3172000080B483B0B3
:1006000000AF78600B46FB707B6821221A707B6814
:10061000FF225A707B6800229A700022DA70FB7801
:100620009AB27B689A807B6800229A710022DA7104
:1006300000BF0C37BD465DF8047B704780B483B0C3
:1006400000AF78600B46FB707B68A1221A707B6854
:10065000FE225A707B6800229A700022DA70FB78C2
:100660009AB27B689A807B68002242F001029A71FC
:100670000022DA7100BF0C37BD465DF8047B70477D
:1006800080B582B000AF78607B68002B14BF012377
:100690000023DBB2F52208491846084B98477B68CF
:1006A000DB7903F02B03012B14BF01230023DBB202
:1006B00018460837BD4680BD801C0100C77B00007E
:1006C00080B582B000AF786039607B683A681A63A1
:1006D0003B68002B0DD07B681846084B98470346B3
:1006E0001846074B98477B6824331A460021054B70
:1006F000984700BF0837BD4680BD00BF81A70000F6
:1007000045A7000025A5000080B582B000AF786045
:100710007B681B6B002B0FD07B681B6B5A1E7B68A2
:100720001A637B681B6B002B06D16FF0070178689A
:10073000044B9847012300E0002318460837BD46C4
:1007400080BD00BFF107000080B584B000AF7860C5
:1007500039603B685B68074A934206D13B689B68F7
:10076000FB60F868044B984700E000BF1037BD46B7
:1007700080BD00BF490700000907000080B584B0B4
:1007800000AF78607B680C338022002118460F4B45
:1007900098477B687A681A627B680D4A9A627B6820
:1007A0007A68DA620023FB7309E0FB7B7A680A331C
:1007B000DB001344FF229A71FB7B0133FB73FB7B4D
:1007C000002BF2D000BF1037BD4680BD41010100B3
:1007D0004907000080B485B000AFF8600B467A602E
:1007E000FB7200BF1437BD465DF8047B7047000004
:1007F00080B584B000AF786039607A68537B6FF35E
:100800008203537378684E4B9847034618464D4B06
:1008100098477B6824331A4600214B4B98477B68E6
:100820005B7BC3F34003DBB2002B00F084807B686A
:10083000DB7B19467868454B98470346FB7397F96D
:100840000F30002B6EDB97F90F300A33DB007A682C
:100850001344BB603B681D331D2B5DD801A252F8C9
:1008600023F000BFFD08000019090000190900006D
:1008700019090000190900001909000019090000F0
:1008800019090000190900001909000019090000E0
:10089000190900000D0900001909000019090000DC
:1008A00019090000190900001909000019090000C0
:1008B000ED080000190900001909000019090000DD
:1008C00019090000190900001909000019090000A0
:1008D0001909000019090000DD080000BB68DB7978
:1008E00023F00A03DAB2BB68DA711CE0BB68DB797B
:1008F00003F01003DAB2BB68DA7114E0BB68DB798D
:1009000003F01203DAB2BB68DA710CE0BA68D3798B
:1009100043F00403D37106E0BA68D37943F00803C7
:10092000D37100E000BF7B685B697A68D17B3A686D
:100930007868984700E000BF1037BD4680BD00BF13
:1009400081A7000045A7000045A600009D150000F6
:1009500080B584B000AF78607B685B7BC3F34003F5
:10096000DBB2002B14BF01230023BB737B681B6920
:10097000BB600023FB731CE0FB7B7A680C339B009D
:1009800013445B68002B11D0FB7B7A680C339B000F
:1009900013445B681846244B9847FB7B7A680C33FA
:1009A0009B0013445B681846204B9847FB7B013340
:1009B000FB73FB7B012BDFD978681D4B9847786868
:1009C0001C4B9847034618461B4B984703461B4A47
:1009D000022118461A4B98477868164B98470346E9
:1009E0001846154B98477B6818331A460321144B59
:1009F000984778680F4B9847034618460E4B984720
:100A00007B6824331A4600210D4B9847BB7B002B93
:100A100005D0BB68002B02D0BB687868984700BF40
:100A20001037BD4680BD00BFE10500007D05000018
:100A30007D07000081A7000045A7000000000020FE
:100A400045A60000F0B58FB004AF786039607868D3
:100A5000534B984738627868514B9847034618467D
:100A6000504B9847F861FB695B69BB6100237B6170
:100A70007B685B7B03F00103DBB2002B02D06FF0DD
:100A8000010388E03B6818683B685B6804221946EC
:100A9000454B984778627B6A002B02D16FF00903BF
:100AA00079E07B6A3B613B695B79082B07D13B6945
:100AB000DB79502B03D13B691B79012B02D86FF0F6
:100AC000090368E0786A394B984778623B685B684D
:100AD0001946786A364B984778627B6A002B3ED07D
:100AE0007B6A7B617B69DB7803F00303022BE9D12E
:100AF0003B6A587B7B699C787B699B889DB27B694C
:100B0000DB787A699279396AC97BC1F38101C9B20C
:100B10000E46012103910296019200932B46224634
:100B20000146B869234CA047F860FB68002B05D14B
:100B30007868214B98476FF01B032CE0FB687A68BC
:100B40009A607B699B785BB2DB43DBB2DB09DBB28B
:100B50007A680C339B001344FA685A60B2E700BF0E
:100B60003B6859683B699B781A463869134B98472C
:100B700002463B681A603B699B785AB27B681A73DD
:100B80007A68537B43F0010353730D4A0221F869DD
:100B90000C4B9847002318462C37BD46F0BD00BFCC
:100BA00081A7000045A7000019A900000D0500005D
:100BB000D9A90000310500005109000075A9000005
:100BC0000000002025A5000080B584B000AFF860CB
:100BD0000B467A60FB72FB7A012B0DD0022B07D0FB
:100BE000002B0DD17968F868094B984703460BE054
:100BF000F868084B984706E0F868074B984702E00A
:100C00006FF00C0300E0002318461037BD4680BD8E
:100C1000450A000051090000B50C000080B586B0FF
:100C200000AF786039607B689B6B7B617B689B6BF6
:100C30000C333B613B689B68FB603B685B68174A11
:100C4000934224D1FB689B68022200211846144B72
:100C500098470346002B1CD1FB6818331A46032122
:100C60007868104B9847FB6893F90C30DBB2194653
:100C700078690D4B98473A69796978680B4B9847C2
:100C80000346002B06D07868094B984702E000BF66
:100C900000E000BF1837BD4680BD00BF1D0C00003E
:100CA000D998000045A600003D0600001D960000F2
:100CB000A198000080B584B000AF78607B681846CA
:100CC000114B984703461846104B9847F8607B68CD
:100CD0005B680F4A934211D17B685B7BC3F340038F
:100CE000DBB2002B0CD17B680A4ADA617B681833CF
:100CF0001A460321F868084B984702E000BF00E05D
:100D000000BF1037BD4680BD81A7000045A7000089
:100D1000C90B00001D0C000025A5000080B582B0A5
:100D200000AF786039603B6893F9273013F1190FF1
:100D300003D17B6800229A7310E03B6893F9273057
:100D4000002B05D13B685B691A787B689A7305E0D4
:100D50007A68537B43F08003537302E07868024B58
:100D600098470837BD4680BDF917000080B582B0AE
:100D700000AF786039603B6893F92730002B05D0CD
:100D80006FF018017868094B98470CE07A68537B3C
:100D900043F0080353737A68537B43F02003537383
:100DA0007868034B98470837BD4680BDF1070000BF
:100DB0008110000080B584B000AF786039607B6836
:100DC0009B6BFB603B689B68022200211846164B18
:100DD00098470346002B01D0002321E03B681833DD
:100DE0001A4603217868114B98473B6893F90C30F9
:100DF000DBB21946F8680E4B98470022F96878680C
:100E00000C4B98470346002B09D078680A4B98474B
:100E10006FF005013868094B9847012300E0012372
:100E200018461037BD4680BDD998000045A6000081
:100E3000FD0500001D960000A1980000F1070000CC
:100E400080B584B000AF786039603B689B68FB6018
:100E50003B685B68054A934204D1F9687868044BA3
:100E6000984700E000BF1037BD4680BD410E00002E
:100E7000B50D000080B584B000AF78607B6818467F
:100E80000F4B9847034618460E4B9847F860796811
:100E9000F8680D4B9847034683F00103DBB2002B43
:100EA00009D07B68094ADA617B6818331A46032146
:100EB000F868074B984700BF1037BD4680BD00BF9C
:100EC00081A7000045A70000B50D0000410E0000FD
:100ED00025A5000080B584B000AF786039607B68DC
:100EE00018461D4B9847034618461C4B9847F86018
:100EF000FB689B6BBB60BB689B889AB27B685B6B33
:100F0000DB7B9BB29A4214D17A68537B6FF3C303A5
:100F100053737B685B7B03F02003DBB2002B17D19C
:100F20007A68537B43F01003537378680C4B9847EF
:100F30000EE07A68537B6FF3451353737A68537BE3
:100F40006FF3861353736FF005017868054B98476C
:100F500000BF1037BD4680BD81A7000045A7000037
:100F60000D120000F107000080B584B000AF78607A
:100F700039607B689B6BFB607B689B6B0C33BB6051
:100F80003B685B7B03F00803DBB2002B06D03B68B9
:100F90005B6BDB7B9AB2FB689A8010E03B685B7B03
:100FA00003F02003DBB2002B06D03B689B6BDB7B9E
:100FB0009AB2FB689A8002E06FF0010337E03B6869
:100FC0009B680222002118461B4B98470346002BC2
:100FD00002D06FF01B032AE03B6818331A46032146
:100FE0007868164B9847FB6802221A70FB6801224A
:100FF0005A70FB6800229A700022DA70FB680022A7
:101000009A710022DA71BA68F96878680C4B9847CF
:101010000346002B0AD078680A4B98476FF0050109
:101020003868094B98476FF0050300E00023184625
:101030001037BD4680BD00BFD998000045A600000E
:101040001D960000A1980000F107000080B584B053
:1010500000AF786039603B689B68FB603B685B6809
:10106000054A934204D1F9687868044B984700E038
:1010700000BF1037BD4680BD4D100000690F000055
:1010800080B584B000AF78607B6818460E4B9847F7
:10109000034618460D4B9847F8607968F8680C4B82
:1010A0009847B860BB6813F11C0F09D17B68094AE7
:1010B000DA617B6818331A460321F868064B9847B3
:1010C00000BF1037BD4680BD81A7000045A70000C6
:1010D000690F00004D10000025A5000080B584B008
:1010E00000AF786039603B689B69BB607B685B6878
:1010F000FB607B681B7CC3F30013DBB2002B53D077
:10110000BB685B78FE2B4BD0BB685B78FF2B47D06E
:10111000BB685B78012B49D142E0FB685B68254ADC
:10112000934203D0FB681B68FB6039E0BB685B78C7
:10113000012B1AD1BB689B889AB2FB685B6BDB7B87
:101140009BB29A420CD0BB689B889AB2FB685B6BDF
:10115000DB7B9BB29A4203D0FB681B68FB601FE0FD
:101160003968F868144B984721E0FB6893F90C3014
:101170001A46BB689B889BB29A4203D0FB681B68E7
:10118000FB600DE0BB685B78FE2B04D13968F86822
:101190000A4B98470BE03968F868094B984706E016
:1011A000FB68002BB9D102E000BF00E000BF1037A0
:1011B000BD4680BDC90B0000D50E00001D0D00000E
:1011C0006D0D000090B583B000AF78607B689B6BBD
:1011D0000B4918460B4B98477B68986B7B6803F16B
:1011E000580100231F22084CA0470346002B0CBFC8
:1011F00001230023DBB218460C37BD4690BD00BF6B
:10120000B114000099050000B905000090B583B045
:1012100000AF78607B685B6B0B4918460B4B9847B7
:101220007B68586B7B6803F17C0100230D22084C1E
:10123000A0470346002B0CBF01230023DBB2184656
:101240000C37BD4690BD00BF591300009905000042
:10125000B905000090B583B000AF78600B46FB7015
:10126000FB787A680C339B0013445B680D49184681
:101270000D4B9847FB787A680C339B0013445868F1
:101280007B68D96B7B681A6C0023084CA047034627
:10129000002B0CBF01230023DBB218460C37BD46E0
:1012A00090BD00BF4114000099050000B905000081
:1012B00080B584B000AF786039607B685833BB601C
:1012C0000023FB603B68002B05D06FF005017868B8
:1012D000204B98473AE0BB681B7803F07F03702BE4
:1012E0002CD1BB689B78002B02D10023FB6028E047
:1012F000BB689B78022B08D1BB689B899BB23A2BB9
:1013000003D16FF00903FB601BE0BB689B78062BE1
:1013100008D1BB689B899BB2282B03D16FF01C03BB
:10132000FB600EE0BB689B78072B03D16FF01003C6
:10133000FB6006E04FF0FF33FB6002E04FF0FF334D
:10134000FB607B68DB6CF968786898471037BD46AE
:1013500080BD00BFF107000080B584B000AF7860A9
:101360007B689B68FB607B6893F9273013F1190F4A
:1013700018D1FB685B7B03F01003DBB2002B08D0B5
:10138000FA68537B43F040035373F868284B98473F
:101390004BE0FA68537B43F008035373F868254B1E
:1013A000984742E07B6893F92730002B06D0FB6812
:1013B0009B6C6FF00501F868984736E07B689B6985
:1013C0000D2B0BD1FB685A6CFB68D3F880309A4226
:1013D00004D1FB68DB6F184A934206D0FB689B6C14
:1013E0006FF00501F86898471FE0FB6893F88830B4
:1013F000022B08D1FA68537B43F040035373F8681B
:101400000B4B984711E0FB6893F88830012B07D10C
:10141000FB689A6CFB68DA64F868084B984704E04C
:10142000FB689B6C0021F86898471037BD4680BD6B
:10143000750E000081100000555342534119000001
:1014400080B584B000AF78607B689B68FB607B6888
:1014500093F9273013F1190F13D17B68DB7B5BB253
:10146000002B05DAFA68537B43F00803537304E05A
:10147000FA68537B43F020035373F8680A4B98478C
:101480000EE07B6893F92730002B06D0FB689B6C3D
:101490006FF00501F868984702E0F868034B984739
:1014A0001037BD4680BD00BF811000000D12000046
:1014B00080B584B000AF78607B689B68FB607B6818
:1014C00093F9273013F1190F08D1FA68537B43F0D1
:1014D00020035373F8681A4B98472EE07B6893F902
:1014E0002730002B06D0FB689B6C6FF00501F86875
:1014F000984722E07B689B691F2B08D0FA68537BD2
:1015000043F040035373F8680E4B984715E0FB68AF
:101510001B6C002B03D1F8680B4B98470DE0FB6860
:1015200093F864305BB2DB43DBB2DB09DBB2FB7206
:10153000FB7A1946F868054B98471037BD4680BDC1
:1015400081100000750E00000D1200005512000001
:1015500080B582B000AF78607B685B6C5A1C7B689A
:101560005A647B680B4A9A657B68DA7B7B6883F8F0
:1015700065207B685A6C7B68DA657B681A6C7B68CF
:101580001A667868044B9847034618460837BD46E4
:1015900080BD00BF55534243C511000080B485B0E3
:1015A00000AF78600B46FB700023FB7310E0FB7B01
:1015B0007A680A33DB00134493F906301A46FB7845
:1015C0009A4202D197F90F3007E0FB7B0133FB739E
:1015D000FB7B002BEBD04FF0FF3318461437BD4692
:1015E0005DF8047B7047000080B582B000AF786082
:1015F00039603B68002B04D17B68D3F88430002B22
:101600000AD07A68537B43F0800353736FF005016F
:101610007868134B984720E000217868104B984772
:101620007B68DA7B7B689B7B9A4209D27B68DB7B99
:101630000133DAB27B68DA7378680A4B98470CE0BA
:101640007A68537B43F0020353737B681B69002B5A
:1016500003D07B681B69786898470837BD4680BD12
:10166000F1070000F917000080B584B000AF786082
:1016700039603B68002B04D0396878681B4B984769
:1016800030E07B68DB7B19467868194B9847034646
:10169000FB737B68DB7B5AB27B6883F856207B68E0
:1016A000DB6D1BBA1B0A9AB27B68A3F854207B68D7
:1016B0009B6D1BBA5A1C7B681A657B6893F8573080
:1016C00023F02E03DAB27B6883F857207B6893F807
:1016D000573043F00103DAB27B6883F8572078680B
:1016E000044B98471037BD4680BD00BFF10700008E
:1016F0009D150000D118000080B582B000AF786061
:1017000039603B68002B16D17B6893F88830002B3A
:1017100011D17B68D3F88430032B0CD97B6893F804
:101720005A305BB2002B06DA7A6892F8573043F0F1
:10173000040382F8573000217868034B984700BFB4
:101740000837BD4680BD00BFF107000080B584B0FA
:1017500000AF786039603B68002B04D03968786846
:10176000134B984720E07B68DB7B19467868114B68
:1017700098470346FB7397F90F30002B11DB97F95D
:101780000F300A33DB007A681344BB60BB68DB7937
:1017900023F01403012B04D100217868044B9847EF
:1017A00002E07868044B98471037BD4680BD00BF03
:1017B000F10700009D1500007118000080B582B08F
:1017C00000AF786039607B6893F88830002B04D1D3
:1017D0007B68D3F88430002B05D06FF00501786862
:1017E000044B984703E039687868024B98470837FC
:1017F000BD4680BDF107000080B582B000AF7860C3
:101800004FF47A717868164B98477B6803F1580259
:101810007B68DA637B6824221A647B68802283F801
:1018200064207B68062283F866207B686733102279
:10183000002118460B4B98477B68122283F86720DB
:101840007B68242283F86B207B68074A9A64786857
:10185000064B9847034618460837BD4680BD00BF73
:10186000C106000041010100E9150000511500000A
:1018700080B582B000AF78607B6803F158027B6866
:10188000DA637B6808221A647B68802283F864200C
:101890007B680A2283F866207B6867331022002168
:1018A0001846084B98477B68252283F867207B6899
:1018B000054A9A647868054B9847034618460837E6
:1018C000BD4680BD410101006916000051150000B0
:1018D00080B582B000AF78607B6803F158027B6806
:1018E000DA637B6810221A647B68802283F86420A4
:1018F0007B68062283F866207B686733102200210C
:1019000018460C4B98477B681A2283F867207B683F
:101910001C2283F869207B68102283F86B207B6887
:10192000054A9A647868054B984703461846083775
:10193000BD4680BD41010100F916000051150000AF
:1019400080B582B000AF78607B6803F158027B6895
:10195000DA637B6812221A647B68802283F8642031
:101960007B68062283F866207B686733102200219B
:1019700018460A4B98477B68032283F867207B68E8
:10198000122283F86B207B68054A9A647868054BBD
:101990009847034618460837BD4680BD41010100FF
:1019A000B11200005115000080B582B000AF786020
:1019B0004FF47A717868114B98477B6800221A645B
:1019C0007B68002283F864207B68062283F8662007
:1019D0007B686733102200211846094B98477B68C3
:1019E000002283F867207B68064A9A647868064B71
:1019F0009847034618460837BD4680BDC10600001B
:101A0000410101004D1700005115000080B584B060
:101A100000AF786039600023FB603B685B7B03F0BC
:101A20000103DBB2002B02D06FF0100313E0396822
:101A300078680B4B9847F860FB68002B01D0FB6877
:101A400009E03868074B98473B68FF221A733B68E8
:101A5000054A5A60002318461037BD4680BD00BFB6
:101A6000BDA400007D070000C90B000080B586B052
:101A700000AFF8607B600B46FB721346BB72FB68DD
:101A8000002B14BF01230023DBB240F27B423C4910
:101A900018463C4B9847FB685B7BC3F34003DBB2C3
:101AA000002B02D16FF0100365E0FB689B7BFA7A94
:101AB0009A4202D96FF00C035DE007F1100318465B
:101AC000314B9847FB685B7BC3F38003DBB2002B91
:101AD00007D007F1100318462C4B98476FF01003FE
:101AE00049E0FA68537B43F00403537307F1100392
:101AF0001846264B9847FB68FA7ADA737B68002B06
:101B000001D07B6800E0224BFA685361FB7A1946EA
:101B1000F868204B98470346FB75BB7A002B13D11E
:101B200097F91730002B0FDB97F91730002B1CDBD0
:101B300097F917300A33DB00FA6813441846164B3E
:101B400098470346002B10D0F868144B984703467B
:101B5000002B02D06FF01C030DE0FA68537B6FF38B
:101B6000820353736FF0050305E0FA68537B6FF34C
:101B700082035373002318461837BD4680BD00BF4B
:101B8000A01C0100C77B00006DC4000093C40000CE
:101B9000D50700009D15000081060000A91900006E
:101BA00080B586B000AFF860B9607A607B80FB6872
:101BB000002B07D07B68002B04D07B88002B01D042
:101BC000012300E0002303F00103DBB24FF4956230
:101BD00055491846554B9847FB685B7BC3F3400358
:101BE000DBB2002B02D16FF01C0399E0FB681B6D88
:101BF000BA689A4206D27A88BB681A44FB681B6DA1
:101C00009A4202D96FF00C038AE007F114031846D8
:101C1000474B9847FB685B7BC3F38003DBB2002B29
:101C200007D007F114031846424B98476FF0100392
:101C300076E0FA68537B43F00403537307F114030F
:101C400018463C4B9847FB68503318463A4B984728
:101C50000346002B07D0FA68537B6FF3820353735C
:101C60006FF010035CE04FF47A71F868334B9847DB
:101C70003B6A002B01D03B6A00E0314BFA685361AC
:101C8000FB687A68DA637B88FA68B2F8542002FB52
:101C900003F31B021A46FB681A64FB68294A9A641C
:101CA000FB68802283F86420FB680A2283F86620A0
:101CB000FB686733102200211846234B9847FB68C6
:101CC000282283F86720BB681B0EDAB2FB6883F812
:101CD0006920BB681B0CDAB2FB6883F86A20BB681A
:101CE0001B0ADAB2FB6883F86B20BB68DAB2FB68C8
:101CF00083F86C207B881B0A9BB2DAB2FB6883F8FE
:101D00006E207B88DAB2FB6883F86F20F8680F4B8F
:101D100098470346002B01D0002301E06FF0050334
:101D200018461837BD4680BDA01C0100C77B0000C7
:101D30006DC4000093C4000081060000C1060000CD
:101D4000D5070000BD17000041010100511500003A
:101D500080B586B000AFF860B9607A607B80FB68C0
:101D6000002B07D07B68002B04D07B88002B01D090
:101D7000012300E0002303F00103DBB240F2E24262
:101D800059491846594B9847FB685B7BC3F340039E
:101D9000DBB2002B02D16FF01C03A1E0FB681B6DCE
:101DA000BA689A4206D27A88BB681A44FB681B6DEF
:101DB0009A4202D96FF00C0392E007F1140318461F
:101DC0004B4B9847FB685B7BC3F38003DBB2002B74
:101DD00007D007F114031846464B98476FF01003DD
:101DE0007EE0FA68537B43F00403537307F1140356
:101DF0001846404B9847FB68503318463E4B98476F
:101E000003461A46FB6893F85730C3F38003DBB2EE
:101E10001343002B07D0FA68537B6FF3820353738D
:101E20006FF010035CE04FF47A71F868334B984719
:101E30003B6A002B01D03B6A00E0314BFA685361EA
:101E4000FB687A68DA637B88FA68B2F8542002FB90
:101E500003F31B021A46FB681A64FB68294A9A645A
:101E6000FB68002283F86420FB680A2283F866205E
:101E7000FB686733102200211846234B9847FB6804
:101E80002A2283F86720BB681B0EDAB2FB6883F84E
:101E90006920BB681B0CDAB2FB6883F86A20BB6858
:101EA0001B0ADAB2FB6883F86B20BB68DAB2FB6806
:101EB00083F86C207B881B0A9BB2DAB2FB6883F83C
:101EC0006E207B88DAB2FB6883F86F20F8680F4BCE
:101ED00098470346002B01D0002301E06FF0050373
:101EE00018461837BD4680BDA01C0100C77B000006
:101EF0006DC4000093C4000081060000C10600000C
:101F0000D5070000BD170000410101005115000078
:101F100080B586B000AFF860B9607A6000237B615D
:101F2000FB68012B08D0FB68022B05D0FB68032B54
:101F300002D04FF0FF330BE07968B868064B984742
:101F400078617B69002B02DA4FF0FF3300E07B6998
:101F500018461837BD4680BD0504000080B500AFA7
:101F6000034A04490448054B984700BF80BD00BFA1
:101F70000C00002008000020500800201D3900003F
:101F800080B483B000AF03463960FB8013467B7199
:101F90007B79043B052B5DD801A252F823F000BFEA
:101FA000372000001920000007200000ED1F00006E
:101FB000D31F0000B91F0000FB883A682D49A1FB20
:101FC0000212920C02FB03F34FF47A7202FB03F34A
:101FD0004AE0FB883A6852092749A1FB0212D2095C
:101FE00002FB03F3642202FB03F33DE0FB883A6843
:101FF0002249A1FB0212520B02FB03F213469B0083
:1020000013445B0030E0FB883A681D49A1FB0212D3
:10201000920902FB03F327E0FB883A681949A1FB08
:102020000212520902FB03F3013B174AA2FB0323EE
:10203000DB08013318E0FB883A681349A1FB021260
:10204000D20802FB03F3013B0E4AA2FB03235B0908
:10205000013309E0FB883A6802FB03F3013B084ABD
:10206000A2FB03239B09013318460C37BD465DF8DC
:10207000047B704783DE1B43C55A7C0A5917B7D1CE
:10208000D34D62101F85EB51CDCCCCCC80B582B046
:1020900000AF0346FB80FB88082204491846044B26
:1020A0009847034618460837BD4680BD006CDC02E1
:1020B000811F000080B584B000AF786039607B6814
:1020C000002B04D03B68002B01D0012300E000234B
:1020D00003F00103DBB238220C4918460C4B984739
:1020E0007B68396818460B4B9847F860FB68002BF3
:1020F00001D0FB6806E07B68074A1A607B68074AE4
:102100005A60002318461037BD4680BDC01C010030
:10211000C77B000051250000F92200001D230000AC
:1021200080B588B000AFF860B9607A60FB68002BBA
:1021300004D07B68002B01D0012300E0002303F0D2
:102140000103DBB2CC2219491846194B9847FB68AA
:102150001846184B9847F861FB681846164B984785
:10216000B861B968F868154B984778617B69002BAE
:1021700001D07B6916E07A68BB699A4208D8BA68D0
:10218000FB69B2FBF3F27B681344BA699A4202D24C
:102190006FF00C0306E0FB687A68B9681846084BD4
:1021A0009847034618462037BD4680BDC01C010035
:1021B000C77B0000B5240100CD240100A52200004A
:1021C0001126000080B588B000AFF860B9607A6071
:1021D000FB68002B04D07B68002B01D0012300E0BA
:1021E000002303F00103DBB2E22219491846194B20
:1021F0009847FB681846184B9847F861FB681846E3
:10220000164B9847B861B968F868154B98477861DC
:102210007B69002B01D07B6916E07A68BB699A4222
:1022200008D8BA68FB69B2FBF3F27B681344BA6959
:102230009A4202D26FF00C0306E0FB687A68B96834
:102240001846084B9847034618462037BD4680BDC0
:10225000C01C0100C77B0000B5240100CD24010093
:10226000A52200008D26000080B582B000AF786006
:102270007B68002B14BF01230023DBB2F822064940
:102280001846064B98477B681846054B9847034607
:1022900018460837BD4680BDC01C0100C77B000042
:1022A000B524010080B584B000AF786039607B68E8
:1022B000002B14BF01230023DBB24FF48C720B49B7
:1022C00018460B4B98477B6818460A4B9847F860AE
:1022D000FB685A1E3B681340002B02D06FF00D03C1
:1022E00000E0002318461037BD4680BDC01C010029
:1022F000C77B0000B524010080B584B000AF7860D2
:102300007B68FB60FB685B69002B03D0FB685B6943
:10231000F868984700BF1037BD4680BD80B584B0CF
:1023200000AF78607B68FB60FB689B69002B03D083
:10233000FB689B69F868984700BF1037BD4680BDB1
:1023400080B483B000AF0346FB80B7F90630002BA2
:102350000BDBFB8803F01F020749B7F906305B0966
:10236000012000FA02F241F8232000BF0C37BD46DD
:102370005DF8047B704700BF00E100E080B483B0EB
:1023800000AF0346FB80B7F90630002B10DBFB885B
:1023900003F01F020949B7F906305B09012000FA72
:1023A00002F2203341F82320BFF34F8FBFF36F8F2A
:1023B00000BF0C37BD465DF8047B704700E100E0CC
:1023C00080B483B000AF0346FB80B7F90630002B22
:1023D0000CDBFB8803F01F020749B7F906305B09E5
:1023E000012000FA02F2603341F8232000BF0C37CD
:1023F000BD465DF8047B704700E100E080B483B027
:1024000000AF78607B681B8A9BB203F00103002B4E
:1024100014BF01230023DBB218460C37BD465DF81C
:10242000047B704780B483B000AF78607B68012282
:102430001A8200BF0C37BD465DF8047B704780B43C
:1024400083B000AF78607B681B8A9BB218460C375C
:10245000BD465DF8047B704780B483B000AF786000
:102460000B467B807B687A881A8200BF0C37BD469A
:102470005DF8047B704780B483B000AF78607B6800
:102480009B689BB218460C37BD465DF8047B7047CD
:1024900080B483B000AF78607B685B8A9BB203F046
:1024A0000103002B14BF01230023DBB218460C37B5
:1024B000BD465DF8047B704780B485B000AF78609E
:1024C00039607B689B69FB60FA683B681340FB607E
:1024D000FB6818461437BD465DF8047B704780B42E
:1024E00083B000AF78600B467B807B687A881A8067
:1024F00000BF0C37BD465DF8047B704780B483B0E5
:1025000000AF78607B681B889BB218460C37BD46CD
:102510005DF8047B704780B483B000AF78603960A9
:102520007B683A685A6100BF0C37BD465DF8047B92
:10253000704780B483B000AF78600B467B807B68C7
:102540007A889A8000BF0C37BD465DF8047B7047DF
:1025500080B584B000AF786039607B68002B05D00F
:102560003B68214A934201D1012300E0002303F09C
:102570000103DBB24B221D4918461D4B98477B686F
:102580003A681A6138681B4B98470346FB60FB6842
:1025900023F4404323F0C003FB60174B1B881A460B
:1025A000FB681343FB60FB689BB219463868134B0A
:1025B0009847134A7B6813601D20124B98471E20D2
:1025C000104B98471D20104B98471E200E4B9847E4
:1025D0001D200E4B98471E200C4B98470023184691
:1025E0001037BD4680BD00BF00400041D81C01002F
:1025F000C77B0000FD240000B0000020DF240000A5
:10260000B40000207D230000C1230000412300000E
:1026100080B586B000AFF860B9607A6020237B6136
:10262000BB6823F4FF5323F01F033B617A687B6987
:102630009A4203D1BA683B699A4202D06FF00C0308
:1026400019E000BFFB681B6918460D4B984703460D
:1026500083F00103DBB2002BF4D1FB681B69B9687E
:102660001846084B9847FB681B694AF211511846F7
:10267000054B9847202318461837BD4680BD00BF3C
:1026800091240000172500003325000080B586B096
:1026900000AFF860B9607A6020237B61BB6823F4E7
:1026A000FF5323F01F033B617A687B699A4203D191
:1026B000BA683B699A4202D06FF00C0319E000BF80
:1026C000FB681B6918460D4B9847034683F00103CE
:1026D000DBB2002BF4D1FB681B69B9681846084BC4
:1026E0009847FB681B694AF212511846054B9847F8
:1026F000202318461837BD4680BD00BF9124000036
:10270000172500003325000080B584B000AF786045
:102710007B681B69FB60F868134B98470346002BE6
:102720000BD0F868114B98477B681B68002B17D0BB
:102730007B681B687868984712E0F8680C4B9847EC
:102740000346002B0CD040F25E21F868094B9847F5
:102750007B685B68002B03D07B685B687868984770
:1027600000BF1037BD4680BDFD23000025240000BA
:102770003F2400005924000080B500AF034B1B68C4
:102780001846034B984700BF80BD00BFB40000202F
:102790000927000080B500AF034B1B681846034BA8
:1027A000984700BF80BD00BFB4000020092700008B
:1027B00080B485B000AF78600B4B1B68002B02D152
:1027C000094B0A4A1A60084B1B68FB60064B1A68E3
:1027D0007B681344044A1360FB6818461437BD46EF
:1027E0005DF8047B704700BFB800002088C8002057
:1027F00080B483B000AF78604FF0FF3318460C37D9
:10280000BD465DF8047B704780B483B000AF78604C
:1028100039603B684FF400525A60002318460C3769
:10282000BD465DF8047B704780B483B000AF78602C
:10283000012318460C37BD465DF8047B704780B411
:1028400085B000AFF860B9607A600023184614378D
:10285000BD465DF8047B704780B586B000AFF86078
:10286000B9607A6000237B61FB68002B02D04FF0D7
:10287000FF330BE07968B868064B984778617B694D
:10288000002B02DA4FF0FF3300E07B69184618375F
:10289000BD4680BDCD03000080B483B000AF78603A
:1028A0000B46FB70FB787A68DB0113441B68184603
:1028B0000C37BD465DF8047B704780B483B000AF31
:1028C00078600B46FB70FB787A68DB0113441033A9
:1028D0001B6818460C37BD465DF8047B704780B412
:1028E00083B000AF78600B46FB70FB787A68DB0141
:1028F000134420331B6818460C37BD465DF8047B33
:10290000704780B487B000AFF860084611461A4699
:1029100003467B810B463B811346FB717A893B89D9
:10292000D31A0733002B00DA0733DB10013BFA68B8
:1029300013441B781A463B8903F0070342FA03F35A
:102940007B613B8903F00702FB791344082B16DDFA
:102950007A893B89D31A0733002B00DA0733DB105F
:10296000023BFA6813441B781A463B8903F00703BD
:10297000C3F1080302FA03F37A6913437B613B89CD
:1029800003F00702FB791344102B16DD7A893B898B
:10299000D31A0733002B00DA0733DB10033BFA6846
:1029A00013441B781A463B8903F00703C3F1100355
:1029B00002FA03F37A6913437B613B8903F0070250
:1029C000FB791344182B16DD7A893B89D31A073318
:1029D000002B00DA0733DB10033BFA6813441B7843
:1029E0001A463B8903F00703C3F1180302FA03F305
:1029F0007A6913437B61FB794FF0FF3202FA03F3EC
:102A0000DB437A6913407B617B6918461C37BD46FE
:102A10005DF8047B7047000080B586B000AF0346C8
:102A2000FB7107F10C031846134B9847FB791946C5
:102A30001248134B98477861FB7919460F48114BA0
:102A4000984702467B69DB4313403B61FB7919469B
:102A50000A480D4B984702467B6913403A69134375
:102A60003B6107F10C031846084B98473B69184631
:102A70001837BD4680BD00BF6DC400000080004116
:102A800099280000DF280000BB28000093C4000044
:102A900080B582B000AF0346FB71FB795B09DBB206
:102AA0001846094B98470146FB7903F01F030122A2
:102AB00002FA03F30B40002B14BF01230023DBB207
:102AC00018460837BD4680BD192A000080B586B07B
:102AD00000AF0346FB7140F634033B61274B1B6894
:102AE000002241F237111846254B9847034683F0E0
:102AF0000103DBB2002B01D000233AE04FF4FC13BA
:102B00007B61FB79002B03D07B6943F080437B61C1
:102B10001A4B1B687A6944F229511846184B98479A
:102B2000034683F00103DBB2002B01D0002320E039
:102B3000124B1B681846134B9847F860FB68002B34
:102B40000EDAFB6803F08043002B10D00E4B1B689D
:102B5000DA7A0D4B1B6842F00802D2B2DA7206E054
:102B60003B695A1E3A61002BB8D1002301E000BF37
:102B7000012318461837BD4680BD00BFE400002081
:102B8000F143000035440000EC00002080B582B025
:102B900000AF2B4B1B68002244F205511846294B0D
:102BA0009847034683F00103DBB2002B01D00123D9
:102BB00041E0234B1B681846234B984778607B689D
:102BC00003F0E043002B01D1012334E041F28833CC
:102BD0003B601B4B18687B6803F4FC131A4644F2F5
:102BE0000551184B9847034683F00103DBB2002BD5
:102BF00001D000231FE0124B1B681846124B984768
:102C000078607B68002B06DB3B685A1E3A60002B1D
:102C1000DFD100230FE000BF7B6803F00063002BCF
:102C200004D00A4B1B680522DA7203E0074B1B68CD
:102C30000422DA72012318460837BD4680BD00BF62
:102C4000E4000020F143000035440000EC000020C7
:102C500090B58BB002AF0923BB610023BB750FE0B9
:102C6000BB7D3A46134400930023BA69002100203B
:102C7000464CA047BB690133BB61BB7D0133BB75CB
:102C8000BB7D032BECD93B781A467B781B021A4498
:102C9000BB781B041A44FB781B061344BB61BB6959
:102CA000FB610023BB750FE0BB7D3A1D134400930D
:102CB0000023FA6900210020344CA047FB6901334E
:102CC000FB61BB7D0133BB75BB7D022BECD93B792E
:102CD000FF2B01D1002355E03B79222B02D1BB7998
:102CE000002B12D07B79002B01D100234AE07B79A5
:102CF0001A46FB691344013BFB61BB6903F5807312
:102D0000FA699A42CDD900233CE000BFFB69033B3E
:102D1000FB610023BB750FE0BB7D3A1D134400939C
:102D20000023FA6900210020184CA047FB690133F9
:102D3000FB61BB7D0133BB75BB7D052BECD97B7A79
:102D4000FB75FB7D322B01D93223FB75FB7D03F034
:102D500007030F4A52F823303B61FB7DDB08DBB2EF
:102D600003F00F030B4A52F82330FB603B69FA680B
:102D700002FB03F2084B1B684FF47A7101FB02F26D
:102D80001A60012318462437BD4690BDD13100009A
:102D9000F81C0100141D0100EC00002090B585B066
:102DA00002AFFB1D00930023082200210020154CD8
:102DB000A047034683F00103DBB2002B01D00023C0
:102DC0001CE0FB795BB2002B01DB012316E0022340
:102DD000FB71FB1D00930123072200210120094CF8
:102DE000A047034683F00103DBB2002B01D0002390
:102DF00004E0054B1B6804225A73012318460C3764
:102E0000BD4690BDD1310000EC00002090B585B0EA
:102E100002AFFB1D00930023132200210020194C58
:102E2000A047034683F00103DBB2002B01D000234F
:102E300024E0FB7903F00103002B01D101231DE005
:102E40000223FB71FB1D00930123132200210120AB
:102E50000C4CA047034683F00103DBB2002B01D0EA
:102E600000230BE0084B1B6801229A77064B1B6876
:102E70001A68054B1B6852001A60012318460C376C
:102E8000BD4690BDD1310000EC00002090B593B05C
:102E900002AF3B46402200211846364B9847364B3E
:102EA000186801230193012300934023334A3449D6
:102EB000344CA047034683F00103DBB2002B01D062
:102EC000002352E02C4B1B683946012218462E4B3A
:102ED0009847034683F00103DBB2002B01D00023A7
:102EE00043E0254B1B681846284B9847034683F060
:102EF0000103DBB2002B01D0002336E01E4B1B6820
:102F00001846234B9847034603F08003002B01D05B
:102F100000232AE0384604234FF4BC724FF40071BA
:102F20001C4CA04703460F2B01D101231DE038465E
:102F300010234FF488724FF40071164CA0470346DB
:102F4000002B01D0002310E00B4B1B681846124BDE
:102F50009847124B1B6801229A77104B1B681A681E
:102F60000E4B1B6852001A60012318464437BD46B9
:102F700090BD00BF41010100E400002001FFFF807F
:102F800006110800BD44000011450000B9450000CD
:102F90003544000003290000B5430000EC00002088
:102FA00080B584B000AF78607B6800221A70164B41
:102FB0001B684FF4D57245F208511846134B9847D9
:102FC000034683F00103DBB2002B01D0012317E09D
:102FD0000D4B1B6818460E4B9847F860FB68B3F121
:102FE000FF3F01D101230BE0FB68C3F30B03B3F5F3
:102FF000D57F01D0002303E07B6801221A700123F2
:1030000018461037BD4680BDE4000020F1430000A3
:103010003544000080B500AF0F4B18680F4B1B689C
:103020001B891B041A4641F609310D4B984703468C
:1030300083F00103DBB2002B01D0002309E0064B33
:103040001A68064B1B680E3319461046054B984705
:103050000123184680BD00BFE4000020EC000020E2
:10306000F143000071440000B0B584B000AF374BAD
:103070001B6803F10E00082360228021344CA04716
:10308000F860FB6803F00703324A52F82330BB6054
:10309000FB68DB0803F00F032F4A52F823307B60F4
:1030A000BB687A6802FB03F2284B1B684FF47A7105
:1030B00001FB02F21A60254B1B6803F10E0002238C
:1030C0007E228021224CA0470346002B0FD01F4BAD
:1030D0001B6803F10E001623302280211C4CA047F0
:1030E00003465A1C194B1B6852025A6029E0174BC1
:1030F0001B6803F10E000C233E228021144CA047D4
:1031000003465C1C114B1B6803F10E0003232F22A6
:1031100080210F4DA8470346023304FA03F33B60B6
:103120000A4B1B6803F10E00042350228021084C37
:10313000A04702463B6803FA02F2044B1B68920A5E
:103140005A6000BF1037BD46B0BD00BFEC00002084
:1031500003290000F81C0100141D010080B582B095
:1031600000AF164B7B60164B1868164B1B681B890B
:103170001B041A4641F20D11134B9847034683F086
:103180000103DBB2002B01D0002312E00C4B1B68C3
:1031900018460E4B9847034603F48073002B06D164
:1031A0007B685A1E7A60002BDDD1002301E000BF4E
:1031B000012318460837BD4680BD00BF400D0300FF
:1031C000E4000020EC000020F14300003544000042
:1031D00080B582B000AF3A601A460346FB710B46D9
:1031E000BB7113467B713B69002B14BF0123002385
:1031F000DBB240F2763218491846184B9847184B04
:1032000018683B691B781A46FB79DB071A43BB79C0
:103210001B071A437B79DB061A433B685B021343A7
:103220001A4641F234310F4B9847034683F00103AD
:10323000DBB2002B01D0002309E0094B1B681846C4
:10324000094B98470346DAB23B691A7001231846C6
:103250000837BD4680BD00BF941D0100C77B00003C
:10326000E4000020F14300003544000080B500AFC9
:10327000144B1868144B1B681B891B041A4641F237
:103280003711124B9847034683F00103DBB2002B42
:1032900001D0002314E00B4B1B68022241F20611FF
:1032A00018460A4B9847034683F00103DBB2002B14
:1032B00001D0002304E0044B1B6804225A7301234D
:1032C000184680BDE4000020EC000020F14300001F
:1032D00090B585B002AF3B4B18683B4B1B681B8910
:1032E0001B041A4641F23711384B9847034683F0C6
:1032F0000103DBB2002B01D000235FE0314B1868E3
:103300000123019301230093082300223049314C0B
:10331000A047034683F00103DBB2002B01D000235A
:103320004CE0284B1B683946012218462A4B984727
:10333000034683F00103DBB2002B01D000233DE004
:10334000204B1B681846254B9847034683F0010322
:10335000DBB2002B01D0002330E0384604233822B2
:1033600040211F4CA0470346012B09D0012B02D35B
:10337000022B0AD01CE0144B1B6810221A731CE0AD
:10338000114B1B681A221A7317E0384601232F22AB
:103390004021134CA0470346012B04D10A4B1B6864
:1033A00030221A7309E0084B1B6820221A7304E0CC
:1033B000054B1B6810221A7300BF012318460C37F7
:1033C000BD4690BDE4000020EC000020F143000069
:1033D00033110800BD44000011450000B94500004C
:1033E0000329000080B582B000AF0346FB71FB7972
:1033F000002B01D00423BFE0614B1B68002B65D07C
:103400005F4B1A68FB799B001344B3F90030B3F1AA
:10341000FF3F5BD05A4B1A68FB799B001344B3F90A
:103420000030DBB21846574B984703461946544BB9
:103430001A68FB799B0013445B88994208D0FB799A
:10344000514A5B0113440A3304221A70022393E0A9
:10345000FB794D4A5B0113440A331B78042B08D1D6
:10346000FB79494A5B0113440A3301221A70022393
:1034700082E0FB79444A5B0113440A331B78012B39
:103480001AD1FB79404A5B0113440A3302221A70B5
:10349000FB793D4A5B0113443C4A1A60FB793A4A86
:1034A0005B0113440D3301221A70FB79364A5B012C
:1034B00013441E3300221A70FB79334A5B01134414
:1034C0000A331B78032B2CD1032355E0FB792E4ABA
:1034D0005B0113440A331B78042B07D0FB792A4A7B
:1034E0005B0113440A331B78032B1AD1FB79264A5C
:1034F0005B0113440A3302221A70FB79224A5B01F2
:103500001344224A1A60FB791F4A5B0113440D33AE
:1035100001221A70FB791C4A5B0113441E330022FE
:103520001A701B4B1B78FA799A4203D0194B1B88EF
:10353000002B01D1012300E0002303F00103DBB2E3
:1035400040F22C4214491846144B9847104AFB7914
:103550001370FB795B010C4A1344114A1360114B41
:103560009847FB79084A5B0113440A331B78022B06
:103570000CBF01230023DBB218460837BD4680BDCF
:10358000BC000020912A0000C4000020801A060020
:10359000E8000020F2000020941D0100C77B00001D
:1035A000EC000020A935000090B583B002AF0D4BB0
:1035B00018680D4B19780D4B1B681A680B4B1B686C
:1035C0005C7B0A4B1B689B7F002B14BF01230023ED
:1035D000DBB200932346064CA04700BF0437BD462C
:1035E00090BD00BFE4000020E8000020EC000020B7
:1035F0009D42000080B500AF064B1B78002B07D121
:10360000054B1A68034B1B7819461046034B984725
:1036100000BF80BDE8000020E4000020F14200006F
:1036200090B585B002AF0023FB710823BB71A64B98
:103630001B680122DA72A44B1B6800221A73A24B8A
:103640001B6800221A81A14B1B681846A04B9847A3
:10365000BB1D009300230622002101209D4CA047A2
:103660009A4B1B6800224FF4804118469A4B9847AA
:10367000034683F00103DBB2002B01D000231FE1DE
:10368000FB1D1846954B9847034683F00103DBB2B8
:10369000002B01D0002313E1914B9847034683F0A0
:1036A0000103DBB2002B01D0002309E1864B1B682C
:1036B000DB7A03F00103002B0FD0FB791846894B0E
:1036C0009847034683F00103DBB2002B05D07E4B05
:1036D0001B680022DA720023F2E07B4B1B68DB7A66
:1036E00003F00103002B0FD0784B1B68002245F636
:1036F00002311846784B9847034683F00103DBB24A
:10370000002B01D00023DBE0704B1B68002245F248
:1037100003111846704B9847034683F00103DBB250
:10372000002B01D00023CBE0684B1B6818466E4B82
:10373000984703461A0C644B1B6892B21A81624B7D
:103740001B68DB7A03F00103002B0BD0674B984713
:10375000034683F00103DBB2002B01D00023AFE06E
:10376000634B9847594B1868574B1B681B891B04C0
:103770001A4643F20711584B9847034683F001035A
:10378000DBB2002B01D000239AE04F4B1B68DB7AA1
:1037900003F00103002B09D0564B9847034683F0F2
:1037A0000103DBB2002B01D0002389E0464B1B68EC
:1037B000DB7A03F00403002B09D04F4B98470346F4
:1037C00083F00103DBB2002B01D0002378E03F4BF4
:1037D0001A684A4B1B7819461046494B98470346CE
:1037E000032B23D9384B1B68DB7A03F00403002B2F
:1037F00009D0444B9847034683F00103DBB2002B0A
:1038000001D000235CE0304B1B68DB7A03F001033E
:10381000002B09D03C4B9847034683F00103DBB2F1
:10382000002B01D000234BE0384B9847274B1B68F7
:103830001846374B98470346002B28D0224B1B686D
:10384000DB7A03F00403002B09D0324B9847034680
:1038500083F00103DBB2002B01D0002330E01A4BD0
:103860001B68DB7A03F00103002B0ED0164B1B689C
:103870001B7B102B09D9284B9847034683F0010383
:10388000DBB2002B01D000231AE0204B98470E4BEF
:103890001B68DB7A03F00103002B10D00B4B1B6875
:1038A0004FF4007241F2101118460B4B9847034633
:1038B00083F00103DBB2002B01D0002300E00123E1
:1038C00018460C37BD4690BDEC000020E4000020F7
:1038D000B5430000D1310000F1430000A12F0000EA
:1038E0008D2B0000CD2A000035440000153000006B
:1038F00069300000D1320000512C0000E8000020A7
:10390000354300009D2D00006D320000A9350000F8
:10391000794300000D2E00008D2E000080B487B08A
:1039200000AFF860B9607A600023FB7509E0FB7DA9
:103930000E4A5B0113440A3304221A70FB7D0133E3
:10394000FB75FB7D002BF2D0094BFF221A70094A50
:10395000FB681360084ABB681360084A7B68136001
:1039600000BF1C37BD465DF8047B7047C4000020D3
:10397000E8000020E4000020BC000020C00000207F
:1039800080B584B000AF0346FB71FB791846114B3C
:1039900098470346FB73FB7B012B03D00E4B9847E4
:1039A000FB7B13E00D4B98470346002B07D00C4BD5
:1039B0001B6800229A72084B9847012306E0084BC7
:1039C0001B6803229A72044B98470323184610374A
:1039D000BD4680BDE5330000F5350000213600000E
:1039E000EC00002080B582B000AF0346FB71FB798C
:1039F0001846084B98470346002B01D0002304E0EB
:103A0000054B9847054B1B68DB7A18460837BD46BF
:103A100080BD00BFE5330000F5350000EC0000205C
:103A200080B582B000AF0346FB71FB791846084BA6
:103A300098470346002B01D0002304E0054B98472C
:103A4000054B1B685B6818460837BD4680BD00BF44
:103A5000E5330000F5350000EC00002080B582B0B1
:103A600000AF0346FB71164B1B68002B09D0144BAB
:103A70001A68FB799B001344B3F90030B3F1FF3FA0
:103A800001D1002317E00E4B1A68FB799B00134409
:103A9000B3F90030DBB218460A4B98470346194683
:103AA000074B1A68FB799B0013445B88994201D14C
:103AB000012300E0002318460837BD4680BD00BF43
:103AC000C0000020912A000090B589B002AF0346E3
:103AD0003960FB711346BB80FB7918462C4B984725
:103AE0000346FB73FB7B002B01D0FB7B4CE0294B97
:103AF0009847034683F00103DBB2002B03D0264B2B
:103B00009847052340E0BB88012B02D9234B7B61FA
:103B100001E0234B7B61234B1B68DB7A03F0080336
:103B2000002B02D03B683B6102E03B685B023B61DB
:103B30001D4B186801230193BB8800934FF4007359
:103B40003A697969194CA047034683F00103DBB257
:103B5000002B03D0104B9847052315E0124B1B6830
:103B60001846134B9847B860BA68124B1340002BA5
:103B700003D0094B9847052306E00F4ABB88138002
:103B80000E4ABB881380002318461C37BD4690BDE3
:103B9000E53300005D310000F53500001211100022
:103BA00011110800EC000020E4000020BD440000DA
:103BB00035440000000058E4F2000020F00000202E
:103BC00080B582B000AF78600B467B80154B1B88B8
:103BD0007A889A4294BF01230023DBB240F2A752B5
:103BE00011491846114B9847114B1B687A88796820
:103BF0001846104B9847034683F00103DBB2002BB5
:103C000004D0084B00221A80052307E0054B1A88D0
:103C10007B88D31A9AB2034B1A80002318460837C0
:103C2000BD4680BDF2000020941D0100C77B00004E
:103C3000E40000201145000080B582B000AF0346CB
:103C4000FB711F4B1B6818461E4B9847034683F0B9
:103C50000103DBB2002B01D005232DE0FB79002B03
:103C600003D0194B00221A8005E0174B1B88002B4C
:103C700001D0002320E0154B1B88012B03D1144BEE
:103C80009847002318E00E4B1B68002243F20C11EA
:103C90001846104B9847034683F00103DBB2002B14
:103CA00007D0074B1B68002243F20C111846094B42
:103CB0009847074B9847002318460837BD4680BDF4
:103CC000E4000020B9450000F2000020F0000020D0
:103CD000F5350000F143000090B589B002AF03460E
:103CE0003960FB711346BB80FB7918462C4B984713
:103CF0000346FB73FB7B002B01D0FB7B4BE0FB7986
:103D00001846284B98470346002B03D0264B98476C
:103D1000072340E0BB88012B02D9244B7B6101E0E3
:103D2000234B7B61234B1B68DB7A03F00803002BDA
:103D300002D03B683B6102E03B685B023B611E4B8B
:103D4000186801230193BB8800934FF400733A690C
:103D500079691A4CA047034683F00103DBB2002BBC
:103D600003D0114B9847052315E0134B1B681846E9
:103D7000134B9847B860BA68124B1340002B03D01E
:103D8000094B9847052306E00F4ABB8813800F4A6A
:103D9000BB881380002318461C37BD4690BD00BF6A
:103DA000E53300005D3A0000F53500001991100080
:103DB00018910800EC000020E4000020BD44000041
:103DC00035440000000058E4F2000020F00000201C
:103DD00080B582B000AF78600B467B80154B1B88A6
:103DE0007A889A4294BF01230023DBB240F2FA5250
:103DF00011491846114B9847114B1B687A8879680E
:103E00001846104B9847034683F00103DBB2002BA2
:103E100004D0084B00221A80052307E0054B1A88BE
:103E20007B88D31A9AB2034B1A80002318460837AE
:103E3000BD4680BDF2000020941D0100C77B00003C
:103E4000E40000206545000080B582B000AF034665
:103E5000FB711D4B1B6818461C4B9847034683F0AB
:103E60000103DBB2002B01D0052329E0FB79002BF5
:103E700003D0174B00221A8005E0154B1B88002B3E
:103E800001D000231CE0134B1B88012B03D1124BE4
:103E90009847002314E00C4B1B68002243F20C11DE
:103EA00018460E4B9847034683F00103DBB2002B04
:103EB00003D0094B9847052302E0074B984700239E
:103EC00018460837BD4680BDE4000020F5450000D7
:103ED000F2000020F0000020F5350000F143000062
:103EE00080B483B000AF7860396000BF7B68DA6966
:103EF0003B681340002BF9D100BF0C37BD465DF87D
:103F0000047B704780B483B000AF786039607B6811
:103F1000DA693B681340002B14BF01230023DBB296
:103F200018460C37BD465DF8047B704780B483B0FB
:103F300000AF78607B681B7EDBB218460C37BD464D
:103F40005DF8047B7047000080B582B000AF7860F8
:103F50007B681B6843F002027B681A600321786863
:103F6000024B984700BF0837BD4680BDE13E0000C8
:103F700080B584B000AF78600B46FB707B681B682F
:103F8000FB60FB6823F00203FB60FB785B001A46D2
:103F9000FB681343FB607B68FA681A60032178684A
:103FA000024B984700BF1037BD4680BDE13E000080
:103FB00080B582B000AF78607B681B6823F0020296
:103FC0007B681A6003217868024B984700BF083766
:103FD000BD4680BDE13E000080B584B000AF786092
:103FE00039607B681B68FB60FB6823F44033FB602F
:103FF0003B681B0403F44033FA681343FB607B689F
:10400000FA681A6017217868024B984700BF10378A
:10401000BD4680BDE13E000080B584B000AF786051
:1040200039607B681B68FB60FB6823F44013FB600E
:104030003B681B0503F44013FA681343FB607B687D
:10404000FA681A6017217868024B984700BF10374A
:10405000BD4680BDE13E000080B584B000AF786011
:10406000396003217868074B98477B681B68FB60C1
:10407000FA683B681340FB60FB6818461037BD4682
:1040800080BD00BFE13E000080B582B000AF786027
:1040900039607B683A681A6003217868024B984758
:1040A00000BF0837BD4680BDE13E000080B582B04C
:1040B00000AF786039607B683A685A601721786889
:1040C000024B984700BF0837BD4680BDE13E000067
:1040D00080B483B000AF78600B46FB707B68FA78E1
:1040E0001A7300BF0C37BD465DF8047B704780B47F
:1040F00083B000AF786039607B683A689A6200BF2D
:104100000C37BD465DF8047B704780B483B000AFC8
:1041100078607B689B6A18460C37BD465DF8047B67
:104120007047000080B582B000AF01212048214BCC
:104130009847034683F00103DBB2002B16D00C2313
:104140007B6002211A481C4B98470346002B06D07F
:1041500017481A4B984702211548194B98477B6816
:1041600043F0010319461248164B984701211048A5
:10417000134B98470C210E48124B984700210C48CE
:10418000114B984703210A48104B98474FF40031D0
:1041900007480F4B98470B2105480E4B98470121C4
:1041A00003480D4B9847002318460837BD4680BD8D
:1041B00000400141053F000059400000B13F0000B0
:1041C000E13E000089400000D93F00001940000096
:1041D000AD400000D1400000713F000080B500AF4D
:1041E0000248034B984700BF80BD00BF004001411B
:1041F000493F000080B582B000AF786007210F48CA
:104200000F4B98470346002B02D06FF0030310E0DA
:1042100079680A480B4B984700BF08480A4B9847F3
:10422000034603F00403002BF7D00448074B9847DC
:10423000034618460837BD4680BD00BF0040014117
:10424000053F0000EF4000002D3F00000B41000043
:1042500080B582B000AF786039607B68002B04D0F5
:104260003B68002B01D0012300E0002303F0010391
:10427000DBB2312206491846064B98477B683968FD
:104280001846054B9847034618460837BD4680BD7B
:10429000A81D0100C77B00007986000090B587B09B
:1042A00002AFF8607A601A460B46FB721346BB7287
:1042B000FB68002B14BF01230023DBB24422094911
:1042C0001846094B9847F868BA7AF97A97F8203077
:1042D000009313467A68054CA047034618461437E6
:1042E000BD4690BDA81D0100C77B00000D870000E2
:1042F00080B582B000AF78600B46FB707B68002B06
:1043000014BF01230023DBB24D2207491846074B97
:1043100098477B68FA7811461846054B984703463C
:1043200018460837BD4680BDA81D0100C77B0000A8
:10433000CD87000080B582B000AF78600B46FB707F
:104340007B68002B14BF01230023DBB256220749F0
:104350001846074B98477B68FA7811461846054B74
:104360009847034618460837BD4680BDA81D010082
:10437000C77B0000E787000080B582B000AF78609F
:104380007B68002B14BF01230023DBB260220649A7
:104390001846064B98477B681846054B98470346D6
:1043A00018460837BD4680BDA81D0100C77B000028
:1043B0000D88000080B582B000AF78607B68002B6C
:1043C00014BF01230023DBB2692206491846064BBD
:1043D00098477B681846054B984700BF0837BD468D
:1043E00080BD00BFA81D0100C77B00002D88000014
:1043F00080B584B000AFF860B9607A60FB68002BCC
:1044000014BF01230023DBB2722207491846074B71
:104410009847FB687A68B9681846054B9847034681
:1044200018461037BD4680BDA81D0100C77B00009F
:104430007588000080B582B000AF78607B68002B83
:1044400014BF01230023DBB27B2206491846064B2A
:1044500098477B681846054B984703461846083727
:10446000BD4680BDA81D0100C77B0000F988000083
:1044700080B582B000AF786039607B68002B04D0D3
:104480003B68002B01D0012300E0002303F001036F
:10449000DBB2842206491846064B98477B68396888
:1044A0001846054B984700BF0837BD4680BD00BF82
:1044B000A81D0100C77B00004D89000090B587B0A2
:1044C00002AFF860B9607A607B80FB68002B14BF94
:1044D00001230023DBB290220A4918460A4B984771
:1044E000F8687A8897F8243001933B8C0093134640
:1044F0007A68B968054CA047034618461437BD468C
:1045000090BD00BFA81D0100C77B0000058A000008
:1045100080B584B000AFF860B9601346FB80FB68DB
:10452000002B04D0BB68002B01D0012300E0002346
:1045300003F00103DBB2B52207491846074B984741
:10454000FB68FA88B9681846054B98470346184631
:104550001037BD4680BD00BFA81D0100C77B00000D
:10456000418E000080B584B000AFF860B96013469A
:10457000FB80FB68002B04D0BB68002B01D001231B
:1045800000E0002303F00103DBB2BE220749184616
:10459000074B9847FB68FA88B9681846054B984757
:1045A000034618461037BD4680BD00BFA81D010058
:1045B000C77B00000D8F000080B582B000AF78602F
:1045C0007B68002B14BF01230023DBB2C7220649FE
:1045D0001846064B98477B681846054B9847034694
:1045E00018460837BD4680BDA81D0100C77B0000E6
:1045F000DD8F000080B582B000AF78607B68002B53
:1046000014BF01230023DBB2D02206491846064B13
:1046100098477B681846054B984703461846083765
:10462000BD4680BDA81D0100C77B00001D90000095
:1046300080B483B000AF0346FB80B7F90630002B8F
:104640000BDBFB8803F01F020749B7F906305B0953
:10465000012000FA02F241F8232000BF0C37BD46CA
:104660005DF8047B704700BF00E100E080B483B0D8
:1046700000AF78600B46FB7000BF7B689B78DAB2B6
:10468000FB781340DBB2002BF7D100BF0C37BD46DF
:104690005DF8047B704780B483B000AF78600B4650
:1046A000FB707B689B78DAB2FB781340DBB2002B9F
:1046B00014BF01230023DBB218460C37BD465DF85A
:1046C000047B704780B483B000AF78600B46FB700A
:1046D000FB787A6808335B011344053340221A7073
:1046E00000BF0C37BD465DF8047B704780B483B0D3
:1046F00000AF78600B46FB70FB787A6808335B018B
:104700001344043340221A7000BF0C37BD465DF8D5
:10471000047B704780B483B000AF78600B46FB70B9
:104720001346BB70FB787A685B01134403F20913EC
:10473000BA781A7000BF0C37BD465DF8047B70472D
:1047400080B483B000AF78600B46FB701346BB703B
:10475000FB787A685B01134403F58473BA781A70A6
:1047600000BF0C37BD465DF8047B704780B483B052
:1047700000AF78600B46FB70FB787A6808335B010A
:10478000134407331B78DBB218460C37BD465DF87F
:10479000047B704780B483B000AF78600B46FB7039
:1047A0001346BB70FB787A6808335B011344073308
:1047B000BA781A7000BF0C37BD465DF8047B7047AD
:1047C00080B483B000AF78600B46FB70FB787A68EA
:1047D00008335B011344053301221A7000BF0C3704
:1047E000BD465DF8047B704780B483B000AF78604D
:1047F0000B46FB70FB787A6808335B011344043383
:1048000001221A7000BF0C37BD465DF8047B70476B
:1048100080B483B000AF78600B46FB70FB787A6899
:1048200008335B011344053310221A7000BF0C37A4
:10483000BD465DF8047B704780B483B000AF7860FC
:104840000B46FB70FB787A6808335B011344063330
:104850001B78DBB21B0903F00103002B14BF0123FB
:104860000023DBB218460C37BD465DF8047B704769
:1048700080B483B000AF78600B46FB70FB787A6839
:1048800008335B011344043310221A7000BF0C3745
:10489000BD465DF8047B704780B483B000AF78609C
:1048A0000B46FB701346BB70FB787A6808335B01DC
:1048B00013440533BA781A7000BF0C37BD465DF853
:1048C000047B704780B483B000AF78600B46FB7008
:1048D0001346BB70FB787A6808335B0113440433DA
:1048E000BA781A7000BF0C37BD465DF8047B70477C
:1048F00080B483B000AF78600B46FB701346BB708A
:10490000FB787A685B01134403F20913BA781A70D2
:1049100000BF0C37BD465DF8047B704780B483B0A0
:1049200000AF78600B46FB70FB787A685B0113443C
:1049300003F209131B78DBB218460C37BD465DF84D
:10494000047B704780B483B000AF78600B46FB7087
:104950001346BB70FB787A685B01134403F58473DC
:10496000BA781A7000BF0C37BD465DF8047B7047FB
:1049700080B485B000AF78600B46FB701346BB7007
:10498000FB787A6808335B0113441B78FB73FB7B6D
:1049900023F00303FB73BB7803F00303DAB2FB7B62
:1049A0001343FB73FB787A6808335B011344FA7B8B
:1049B0001A7000BF1437BD465DF8047B704780B4A1
:1049C00085B000AF78600B46FB70FB787A680833DF
:1049D0005B0113441B78FB73FB7B03F00303FB7346
:1049E000FB7B18461437BD465DF8047B704780B4E6
:1049F00083B000AF78600B46FB701346BB70FB784A
:104A00007A6808335B011344BA781A7000BF0C3718
:104A1000BD465DF8047B704780B483B000AF78601A
:104A20000B46FB70FB787A6808335B0113441B78F4
:104A3000DBB218460C37BD465DF8047B704780B486
:104A400083B000AF78600B46FB701346BB70FB78F9
:104A50007A6808335B0113440333BA781A7000BFD5
:104A60000C37BD465DF8047B704780B487B000AF5B
:104A7000F8600B467A60FB72FB7AFA681B011344FC
:104A800004331B687B617B6923F0E0437B617B68B7
:104A90001B0703F0E0437A6913437B61FB7AFA68F2
:104AA0001B01134404337A691A6000BF1C37BD46EA
:104AB0005DF8047B704780B485B000AF78600B462A
:104AC000FB7013463B80FB787A681B0113440C3360
:104AD0001B88FB81FB8923F47063FB813B881B02ED
:104AE0009BB203F470639AB2FB891343FB81FB789A
:104AF0007A681B0113440C33FA891A8000BF1437FB
:104B0000BD465DF8047B704780B483B000AF786029
:104B10000B46FB701346BB70FB787A681B0113448D
:104B20000A33BA781A7000BF0C37BD465DF8047BB3
:104B3000704780B483B000AF78600B46FB70FB78A1
:104B40007A681B0113440A331B78DBB218460C3712
:104B5000BD465DF8047B704780B483B000AF7860D9
:104B60000B46FB7013463B80FB787A681B011344AD
:104B70000E333A881A8000BF0C37BD465DF8047BBF
:104B8000704780B483B000AF78600B46FB70FB7851
:104B90007A681B0113440E331B889BB218460C37EE
:104BA000BD465DF8047B704780B483B000AF786089
:104BB0007B6804229A8300BF0C37BD465DF8047BF6
:104BC000704780B483B000AF78607B6808229A8316
:104BD00000BF0C37BD465DF8047B704780B483B0DE
:104BE00000AF78607B684FF400729A8300BF0C3787
:104BF000BD465DF8047B704780B483B000AF786039
:104C00007B689B8B9BB218460C37BD465DF8047BD6
:104C1000704780B483B000AF78600B467B807B68C0
:104C20007A889A8300BF0C37BD465DF8047B7047D5
:104C300080B483B000AF78607B6804221A8300BF21
:104C40000C37BD465DF8047B704780B483B000AF7D
:104C500078607B6804229A8200BF0C37BD465DF8FD
:104C6000047B704780B483B000AF78600B467B80D4
:104C70007B687A881A8300BF0C37BD465DF8047BD9
:104C8000704780B483B000AF78607B681B8B9BB2A9
:104C900018460C37BD465DF8047B704780B483B07E
:104CA00000AF78600B467B807B687A881A837B88AC
:104CB000DB439AB27B689A8200BF0C37BD465DF831
:104CC000047B704780B483B000AF78600B467B8074
:104CD0007B687A889A8200BF0C37BD465DF8047BFA
:104CE000704780B483B000AF78607B681B8C9BB248
:104CF00018460C37BD465DF8047B704780B582B01E
:104D000000AF78607B681B78DBB223F00203DAB275
:104D10007B681A7003217868024B984700BF0837F8
:104D2000BD4680BD6D46000080B584B000AF7860A0
:104D30000B46FB7003217868064B98477B681B780D
:104D4000FB73FA7BFB781340FB73FB7B1846103731
:104D5000BD4680BD6D46000080B582B000AF786072
:104D60000B46FB707B68FA781A7003217868034B56
:104D7000984700BF0837BD4680BD00BF6D460000A4
:104D800080B582B000AF786003217868044B984703
:104D90007B681B78DBB218460837BD4680BD00BF74
:104DA0006D46000080B483B000AF78607B681B89DB
:104DB0009BB243F480739AB27B681A8100BF0C37B0
:104DC000BD465DF8047B704780B483B000AF786067
:104DD0007B681B899BB243F400739AB27B681A818B
:104DE00000BF0C37BD465DF8047B704780B483B0CC
:104DF00000AF78607B681B899BB223F400739AB282
:104E00007B681A8100BF0C37BD465DF8047B704794
:104E100080B483B000AF78600B467B807B687A8873
:104E20001A8100BF0C37BD465DF8047B704780B423
:104E300083B000AF78607B681B899BB218460C3743
:104E4000BD465DF8047B704780B485B000AF7860E4
:104E50007B681B8AFB81FB8903F00703FB81FB89CD
:104E600018461437BD465DF8047B704780B483B0A4
:104E700000AF786039607B683A685A6200BF0C37CF
:104E8000BD465DF8047B704780B483B000AF7860A6
:104E90007B681B7BDBB218460C37BD465DF8047B94
:104EA000704780B483B000AF786039600023184643
:104EB0000C37BD465DF8047B7047000080B485B0B8
:104EC00000AF4FF082433B60284B1B6803F01F0389
:104ED000FB60264B1B685B0903F01F03BB60234B81
:104EE0001B689B0A03F007037B60FB68002B02D062
:104EF000FB681F2B01D10923FB60BB68002B02D08C
:104F0000BB681F2B01D11923BB607B68002B02D02B
:104F10007B68072B01D106237B60FB689BB29B015A
:104F20009BB203F4F8639AB2BB689BB203F01F0311
:104F30009BB213439AB27B689BB21B039BB203F4F0
:104F4000E0439BB213439AB23B681A853A68D37820
:104F500043F00303D3703A68D37843F00C03D37063
:104F600000BF1437BD465DF8047B704784008000A5
:104F700080B485B000AFF860B9601346FB71FB6880
:104F8000BA68C3F88020FB68FA7983F88A2000BFEA
:104F90001437BD465DF8047B7047000080B485B0CF
:104FA00000AF0346FB800023FB730CE0FB7B0B4A46
:104FB00032F81330FA889A4202D897F90F3006E097
:104FC000FB7B0133FB73FB7B072BEFD907231846D1
:104FD0001437BD465DF8047B704700BFC41D010057
:104FE00080B586B000AF7860084611461A46034681
:104FF000FB700B46BB7013467B707B7803F080031D
:10500000002B14BF01230023FB7597F820300133D8
:10501000DB0003F0380397F82820012A01D1002291
:1050200000E004221A4397F82030002B06D0FB7DC5
:10503000002B01D0012302E0022300E000231343F0
:105040003B617B685B68FB60FB78BA7802F07F02AB
:10505000D1B2FA685B01134403F10802938861F34B
:1050600006039380FB787A7802F00F02D1B2FA68D7
:105070005B01134403F10802938861F30B239380CF
:10508000BB8C1846114B984703461A46FB7802F032
:105090000702D1B2FA685B011A44536861F31E73C8
:1050A00053607B681B683A69D2B2F9781846084B9E
:1050B00098477B681B6897F82C20F9781846054BB1
:1050C0009847012318461837BD4680BD9D4F000004
:1050D000EF4900003F4A0000F0B58DB006AF7860A0
:1050E0000B46FB707B685B683B610023FB754DE002
:1050F0003B69D3F88010FA7D13469B001344DB0014
:105100000B44FB60FB78002B34D0FB6893F826300F
:10511000002B37D0FB689C7BFB68DD7BFB685B7CEE
:10512000FA689289F968C97CC1F30101C9B20E46D7
:10513000F968097CF868C07CC0F38100C0B297F8B8
:1051400017C0049003910296019200932B462246C9
:1051500061467868134CA047FB685B7C002B03D149
:10516000FB68032283F826206FF00601F8680E4BD7
:10517000984708E0FB680D4A5A60FB68002283F8F4
:10518000262000E000BFFB7D0133FB753B6993F8EF
:105190008A30FA7D9A42ABD3FB78002B1C37BD4690
:1051A000F0BD00BFE14F000015710000A34E0000EC
:1051B00080B485B000AF78607B685B68FB60FB689B
:1051C00093F98830DBB20133DBB25AB2FB6883F863
:1051D000882000BF1437BD465DF8047B704780B45B
:1051E00085B000AF78607B685B68FB60FB6893F913
:1051F0008830002B09D0FB6893F98830DBB2013B83
:10520000DBB25AB2FB6883F8882000BF1437BD4672
:105210005DF8047B7047000080B584B000AF786013
:105220007B685B68FB60FB6893F98930DBB2013314
:10523000DBB25AB2FB6883F889207B681B6818468A
:10524000024B984700BF1037BD4680BD314C00006F
:1052500080B485B000AF78607B685B68FB60FB68FA
:1052600093F98930002B09D0FB6893F98930DBB2C0
:10527000013BDBB25AB2FB6883F8892000BF1437C8
:10528000BD465DF8047B704780B584B000AF7860A0
:1052900039603B6893F98730DBB2013BDBB25AB22D
:1052A0003B6883F887203B6893F98730002B23D134
:1052B0007868134B98470023FB7314E03B68B3F8FE
:1052C00084301A46FB7B42FA03F303F00103002B00
:1052D00006D07B681B68F97B10221846094B98475B
:1052E000FB7B0133FB73FB7B032BE7D97B685B699B
:1052F000022201217868984700BF1037BD4680BD63
:10530000515200009948000080B584B000AF786029
:1053100039603B6893F98730DBB2013BDBB25AB2AC
:105320003B6883F887203B6893F98730002B23D1B3
:105330007868134B98470023FB7314E03B68B3F87D
:1053400084301A46FB7B42FA03F303F00103002B7F
:1053500006D07B681B68F97B10221846094B9847DA
:10536000FB7B0133FB73FB7B032BE7D97B685B691A
:10537000022201217868984700BF1037BD4680BDE2
:1053800051520000C548000080B584B000AF78607D
:1053900039600023FB7342E03B68D3F88010FA7B4E
:1053A00013469B001344DB000B44BB60BB6893F8BF
:1053B0002630032B2FD9BB685B7C002B2BD1BB681D
:1053C000B3F92230002B08DDBB68B3F922309BB261
:1053D000013B9BB21AB2BB685A84BB68B3F9203058
:1053E000002B08DDBB68B3F920309BB2013B9BB2B8
:1053F0001AB2BB681A84BB68B3F92230002B04D000
:10540000BB68B3F92030002B06D16FF00701B868F4
:10541000064B984700E000BFFB7B0133FB73FB7B2F
:10542000032BB9D900BF1037BD4680BDAD71000058
:1054300080B584B000AF786039600023FB7324E04E
:105440003B68D3F88010FA7B13469B001344DB00C3
:105450000B44BB60BB68DB7C23F07F03DBB2002B1B
:105460000FD078680E4B9847BA68D37C6FF3C71398
:10547000D3747B681B68F97B10221846094B984748
:1054800000E000BFFB7B0133FB733B6893F88A307D
:10549000FA7B9A42D4D300BF1037BD4680BD00BF0F
:1054A00051520000C548000080B584B000AF78605C
:1054B0000B46FB70FB78194678680F4B98470346FC
:1054C000FB60FB780022194678680C4B9847FB6814
:1054D00003F00F03012B02D0082B03D005E06FF07F
:1054E000050304E06FF0070301E06FF005031846C1
:1054F0001037BD4680BD00BF834B0000594B0000F4
:1055000080B588B000AF786039607B685B68FB610C
:105510003B68DBB2B3FA83F3DBB2C3F11F03DBB248
:10552000FB7697F91B30002BC0F2F880FB69D3F8AB
:10553000801097F91B2013469B001344DB000B449B
:105540007B617B681B68FA7E11461846764B98474C
:1055500003463B617B681B68FA7E11461846734B15
:1055600098470346FB603B6903F02003002B0CD0F7
:105570007B681B68F97E202218466D4B98476FF0B8
:10558000180178696B4B9847CBE03B6903F008033F
:10559000002B1AD07B681B68F97E08221846644BE2
:1055A000984797F91B305B01FA69134400211846AC
:1055B000614B984703465AB27B6983F827206FF006
:1055C000050178695B4B9847ABE03B6903F0040346
:1055D000002B31D07B681B68F97E04221846544B9F
:1055E000984797F91B305B01FA691344002118466C
:1055F000524B98470346FB72FB7A002B00F09080D9
:1056000097F91B305B01FA69134400220021184608
:105610004B4B98477B695B7C012B02D0FB7A022BBA
:1056200009D07B69FA2283F827206FF00501786999
:10563000404B984774E073E03A69FB68134003F00D
:105640000303002B18D07B681B68F97E03221846E1
:10565000374B98477B681B68FA7E11461846394BD2
:1056600098470346012B03D17869374B984758E098
:105670007869364B984754E03A69FB68134003F069
:105680001003002B43D07B681B68F97E102218465C
:10569000274B98477B681B68F97E102218462C4BD5
:1056A00098477B681B68FA7E11461846294B984735
:1056B0007B699B691B785BB2002B07DA7B6905224B
:1056C00083F826207869244B98472AE07B699B69F8
:1056D00006331B78002B05D17B699B6907331B7848
:1056E000002B0CD07B69062283F826207B69596940
:1056F0007B699B8B1A467869184B984711E07B6948
:10570000092283F826207869134B984709E040F274
:105710001B2213490020134B984702E000BF00E012
:1057200000BF2037BD4680BD6D4700001D49000009
:1057300095470000AD710000A9540000334B0000F4
:10574000094B0000BF490000616B0000D96C0000EC
:1057500045490000C1470000BD680000FD6700002A
:10576000D41D0100C77B000080B584B000AF786015
:1057700039607B685B68FB607B681B681846624B1E
:1057800098470346BB603B6803F00803002B0FD02B
:105790007B681B6818465D4B9847012178685C4B15
:1057A00098477B685B690422012178689847A8E0E4
:1057B0003A68BB68134003F40073002B2FD07B685A
:1057C0001B684FF440711846524B98477B681B6822
:1057D0004FF41C711846504B98477B681B6818465D
:1057E0004E4B98477B681B684FF4B8711846494B7D
:1057F00098477B681B684FF4B8711846484B984728
:10580000FB68002283F88620FB68002283F887204B
:105810007B685B69002201217868984771E03A68EB
:10582000BB68134003F48073002B26D07B681B6891
:105830004FF480711846384B98477B681B681846B0
:10584000384B98477B681B684FF400711846344BFF
:1058500098477B681B681846334B9847FB680022C3
:1058600083F88620FB68002283F887207B685B69C9
:10587000002201217868984743E03B6803F0100359
:10588000002B0FD0BB6803F48073002B0AD07B6819
:105890001B68102118461F4B984701220121786888
:1058A000224B98473A68BB68134003F07003002B03
:1058B0001FD07B681B6870211846164B98477B6881
:1058C0001B6870211846144B98477B681B684FF47F
:1058D00002711846124B98477B681B681846124B9A
:1058E0009847FB68322283F887207868104B9847E6
:1058F00007E07B681B683A6892B211461846054B70
:1059000098471037BD4680BD834C0000C34B000054
:10591000D9500000134C0000C54C0000ED4D0000B4
:10592000654C0000DD4B0000A54D0000D1BC00001F
:105930001952000080B584B000AF78607B685B6866
:10594000FB607B681B681846234B98477B681B6885
:105950001846224B98470346002B0ED0FB6893F95C
:105960008730002B04DDFB6893F98630002B2FDC99
:105970007B681B69786898472AE0F9687868184B53
:105980009847FB6893F98630002B04DDF968786846
:10599000144B98471DE0FB6893F98730002B04DD1A
:1059A000F9687868104B984713E0F96878680F4BEE
:1059B00098477B681B6978689847FB6893F989303A
:1059C000002B06DC7B681B681846094B984700E0F3
:1059D00000BF1037BD4680BDA94B0000494E0000F6
:1059E000315400008952000009530000895300001F
:1059F0004B4C000080B582B000AF1A4B1B681B688F
:105A00001846194B984703467B607B68002B06D0ED
:105A1000144B1B6879681846144B98471EE0114BCD
:105A20001B681B681846124B984703467B607B68CF
:105A300003F00403002B05D00A4B1B6818460D4BDE
:105A400098470BE07B6803F45E73002B06D0054B90
:105A50001B6879681846084B984700BF0837BD4651
:105A600080BD00BFF4000020E34C000001550000A1
:105A7000F94B0000355900006957000080B586B029
:105A800000AFF860B9607A604A4B7B6104224A49F2
:105A900048484A4B9847FB68002B0ED0BB68002B48
:105AA0000BD07B69D3F88030002B06D07B6993F84C
:105AB0008A30002B01D0012300E0002303F0010312
:105AC000DBB240F2BE223E4918463E4B98470121C8
:105AD000B8683D4B9847034683F00103DBB2002BC7
