:020000024000BC
:10000000265941311F4B184680F30988EFF31480BD
:1000100040F0020080F314881B4A1C4B9A4208D01F
:100020001B48043A834204D252F8041F43F8041BCD
:10003000F8E7184B184900228B4202D243F8042BF0
:10004000FAE7164E164CA41BA4100025A54204D0B6
:1000500056F8253098470135F8E7124E124CA41B8C
:10006000A4100025A54204D056F825309847013544
:10007000F8E70E4B0E4C98470E4B18600E4B984706
:10008000A047FDE7E0B300206CC204000080002020
:100090002081002020810020E0A30020F8C104007E
:1000A000F8C10400F8C104005CC20400C58E04005D
:1000B000718D0400549A0020ED8D04000348044B18
:1000C000834202D0034B03B1184770476CC204004F
:1000D0006CC204000000000005480649091A891096
:1000E00001EBD171491002D0034B03B1184770479F
:1000F0006CC204006CC204000000000010B5064C85
:10010000237843B9FFF7DAFF044B13B10448AFF388
:1001100000800123237010BD20810020000000001A
:100120006CC2040008B5044B1BB104490448AFF38A
:100130000080BDE80840CFE70000000024810020D7
:100140006CC2040080B582B000AF786042200A4BD8
:1001500098476120084B98470020074B9847482054
:10016000054B98474920044B98476820024B984715
:1001700000BF0837BD4680BD490504008388032BB6
:1001800070B504460D4602D804210B4B984763888E
:1001900004336380A388043BA380E8B2074CA047E4
:1001A000C5F30720A047C5F30740A047280E234604
:1001B000BDE87040184700BF6D050400238F0400A0
:1001C000838870B504460D4613B90121064B984744
:1001D000638801336380A388013BA3802846034BD7
:1001E000BDE87040184700BF6D050400238F040070
:1001F0002DE978418388934206460D46144602D283
:100200001146194B9847738823447380B3881B1B8E
:10021000B380164E082CA84605F1080507D8134DE3
:100220004444A0451ED018F8010BA847F9E715F87B
:10023000080CB04715F8070CB04715F8060CB04786
:1002400015F8050CB04715F8040CB04715F8030C69
:10025000B04715F8020CB047083C15F8010CA4B2E1
:10026000B047D7E7BDE878816D050400238F04000F
:10027000438823F4704370B523F0030343800D4B90
:100280000D4D4FF480229A610C4B0D4A04461878AC
:100290000C4B6188002814BF104618460A4B98473B
:1002A000A84763888342FBD1A01C084BBDE870407F
:1002B000184700BF00800041750F04003C810020FA
:1002C000FC203000E82410001D050400410F04004C
:1002D00038B5094B094C4FF480229A610546084B0A
:1002E000084698470020A0470020A047054B044639
:1002F000A81C9847204638BD00800041238F040089
:1003000091040400410F040070B5084B15464FF4EA
:10031000802204469A610846054B98472846054BBB
:100320009847A01C044BBDE870401847008000416E
:10033000BD040400238F0400410F04000C4B4FF454
:10034000802270B59A6106460A4B0B4D08469847C5
:100350000020A8470020A84704460020A847074BD4
:100360000546B01C984744EA052080B270BD00BF26
:100370000080004191040400238F0400410F040019
:1003800070B50A4B0A4C15464FF480229A61064616
:10039000084B08469847E8B2A047C5F30720A04796
:1003A000B01C054BBDE87040184700BF00800041FD
:1003B000238F0400BD040400410F04002DE9F04127
:1003C0001E460D4B0D4D0C464FF480219961804621
:1003D0000B4B104698470020A8472644B44204D04F
:1003E0000020A84704F8010BF8E708F10200054BCC
:1003F000BDE8F041184700BF00800041238F040092
:1004000091040400410F04002DE9F0411D460B4BFF
:10041000DFF8348014464FF480229A610646084B78
:10042000084698472544AC4203D014F8010BC04756
:10043000F9E7B01C034BBDE8F041184700800041CC
:10044000BD040400410F0400238F04000C4B70B561
:1004500015464FF480229A6106460A4B0A4C08461C
:100460009847E8B2A047C5F30720A047C5F3074067
:10047000A047280EA047B01C044BBDE870401847A9
:1004800000800041BD040400238F0400410F0400DC
:1004900070B5084B084C4FF4802205465A61C0F3F2
:1004A0000740A047C5F30720A047E8B22346BDE8B0
:1004B0007040184700800041238F040070B5094B3D
:1004C000094C05464FF48022C0F306405A6140F0C3
:1004D0008000A047C5F30720A047E8B22346BDE847
:1004E0007040184700800041238F040038B5084B46
:1004F000084C98470020A0470020A0470546002050
:10050000A047054B4FF480229A6145EA002038BD90
:1005100091040400238F04000080004138B50D468B
:10052000064B074C9847E8B2A047C5F30720A04701
:10053000044B4FF480229A6138BD00BFBD04040013
:10054000238F04000080004170B5064D064C4FF427
:1005500080266E61A0470020A0470020A047AE6122
:1005600070BD00BF00800041238F040043882DE947
:100570007043C3F30B034380134BDFF864904FF4D5
:1005800080229A610546114B114A1878114B0E468C
:10059000698840F6FC78002814BF1046184608EA1F
:1005A00001010D4B98476C88C847201AC0F30B0017
:1005B000A8EB000080B2B042A880F4D3A81C074B7F
:1005C000BDE87043184700BF008000413C81002017
:1005D000FC203000E82410001D050400410F040039
:1005E000750F040010B5074B074C002098470120F9
:1005F000A0472620A0470020A04700210348044B25
:10060000984710BD2D080400410804006C810020AB
:100610006D0504002DE9704F564B574C0646574860
:100620008A4698474FF44020A047C0B20828F9D125
:100630004FF44020A047524CDFF89481000B40F665
:10064000FC7300252070A38604F132004D4B6586B3
:10065000984720784C4B4D492A46A84208BF194676
:1006600004F13000C0472046494B10F830CB4949CF
:100670008322AC4508BF1946C0472046464A10F8B9
:10068000309B464BA94514BF994691464946444B79
:10069000984760F07F024946D2B204F13000C0476B
:1006A0002046404A404B10F8301BDFF82891A94201
:1006B00014BF11461946C847306020463B4A10F81F
:1006C000301B3B4BA94214BF11461946C847C6E927
:1006D0000105DFF8049145F0A060C8474FF02050B5
:1006E000C84701354FF02450C847202DF3D1314879
:1006F000314DC8473046A8472E48C8473046A8471E
:100700002C48C8473046A84720781F4B1F498022F5
:10071000002808BF19463046284B98470021174843
:10072000274B98471AF0010F13D0DFF8B0B0DFF86D
:10073000B0A0DFF8B0900025217819F805200F4807
:10074000002914BF5946514629440135C047182D88
:10075000F2D120781B4B1C494FF49662002808BF49
:1007600019461A4B054898474FF07733B362BDE8F6
:10077000708F00BF45010400ED0404006C8100206F
:100780003C810020410F0400C4241000D42030001C
:100790008C24100090203000902410009420300011
:1007A000D1020400342030003024100048203000F2
:1007B0004424100007000026E5050400310A040067
:1007C0006D05040004251000182130008103040089
:1007D000090304003D0304002D08040050213000EB
:1007E0001C25100022A3040070B5064E064D441CC3
:1007F0008307E4B204D030460021A8472046F6E73C
:1008000070BD00BF6C810020C101040070B5054DB2
:10081000054C0646C1B22846A047310A2846A047E3
:1008200070BD00BF6C810020C101040008B5014605
:10083000014B0248984708BD7D0104006C810020EF
:1008400008B560F0FF01024B0248984708BD00BFA1
:100850007D0104006C8100202DE970430A4EDFF811
:100860002C9080460546A5EB080415F8011B11B134
:100870004846B047F7E70548B047601CC0B2044B94
:10088000BDE87043184700BFC10104006C8100201F
:10089000E90704002DE97043DFF82890DFF828808D
:1008A0000C4602F003068D18AC4204D014F8011B6C
:1008B0004846C047F8E73046014BBDE8704318474B
:1008C000E90704006C810020C101040041F0F850E8
:1008D000004B18472D08040041F0A060004B18475A
:1008E0002D08040021F07F4141F00070004B1847B3
:1008F0002D0804000148024B184700BF07000026DE
:100900002D08040021F07F4141F08060004B184722
:100910002D080400C1F30B0141F06060004B184743
:100920002D080400C1F30C0141F05060004B184742
:100930002D08040041F04070004B18472D080400BA
:1009400010B49DF8044004F07F0444EAC31400206E
:1009500064F30700140144EA530363F30F204B01CF
:1009600043EA1212C91062F3174061F07F0161F38C
:100970001F60024B5DF8044B184700BF2D080400B0
:1009800010B509200C46034B98472046024BBDE8A2
:1009900010401847410804002D08040010B50A2033
:1009A0000C46034B98472046024BBDE810401847C1
:1009B000410804002D0804002DE9704F0E200C465C
:1009C0009A460F4BBDF920909DF82480BDF8286011
:1009D0000B9D93469847A0B20A4CA0471FFA8BF094
:1009E000A0471FFA8AF0A0471FFA89F0A0474046A7
:1009F000A0473046A0472846034BBDE8704F184734
:100A0000410804000D0804005908040070B5064BA5
:100A10000C462420154698472046044CA0472846FB
:100A20002346BDE870401847410804002D08040023
:100A300070B5074B0C461A20154698472046054CC2
:100A4000A0470420A04728462346BDE87040184729
:100A5000410804002D0804002DE970432E200C46A7
:100A600098460A4BBDF81860079D91469847A0B27A
:100A7000074CA0471FFA89F0A0474046A0473046E0
:100A8000A0472846034BBDE87043184741080400BF
:100A90000D0804002D08040070B5064B0C462B20F1
:100AA000154698472046044CA04728462346BDE8F3
:100AB00070401847410804002D0804002DE9F0415A
:100AC00016200C461E46094B9DF818509046984734
:100AD000A0B2074CA0471FFA88F0A0473046A047B5
:100AE00028462346BDE8F041184700BF41080400EE
:100AF0000D0804002DE9704FA2B0884614469946AF
:100B00002C9ABDF8A8A02B99224E02234FF0000B7F
:100B100092FBF3F35B429BB25D4611F80B2022A8D7
:100B20000A2A284400D06ABB0BF10105CDE9003147
:100B30004A5D0A2A04BFE418AB464FF0000508BF1F
:100B400024B2154B00F8805C0C209847A4B21FFA21
:100B500088F0B0472046B0474846B0475046B047B7
:100B600002A80E4B9847019911F80B2072B101EBC6
:100B70000B02527852B12C9B1C44009B24B20BF107
:100B8000010BCAE7013500F8802CF8E722B0BDE878
:100B9000708F00BF0D0804004108040059080400CC
:100BA0002DE9704F12200C469A460F4B9DF820906D
:100BB000BDF82480BDF828600B9D93469847A0B2ED
:100BC0000A4CA0471FFA8BF0A0471FFA8AF0A047F3
:100BD0004846A0474046A0473046A0472846044B19
:100BE000BDE8704F184700BF410804000D0804001D
:100BF000590804002DE9F041432088461E460A4B5F
:100C0000BDF8185014469847084B40469847204670
:100C1000074CA0473046A0472846A047234600205F
:100C2000BDE8F041184700BF410804002D0804004A
:100C30000D08040008B50248024B984708BD00BFE4
:100C40006C8100200903040008B50248024B984754
:100C500008BD00BF6C8100204D04040010B59BB29C
:100C60000148024CA04710BD6C810020090404001B
:100C700008B50248024B984708BD00BF6C810020B0
:100C80007102040070B51D4D1D4B044605F1300086
:100C9000984728461B4910F8306B1B4A0423002E46
:100CA00008BF0A46194E04F10C01B04728461849FE
:100CB00010F830CB174A0D23BCF1000F08BF0A46CD
:100CC00004F11001B0472846134910F8305B134A6D
:100CD0000123002D08BF0A4604F11D01B047B4F9F5
:100CE000163013F5004218BF0122A277B4F9142080
:100CF0001B011201C4E9083270BD00BF3C81002015
:100D0000710204000090100000903000BD03040048
:100D10000C25100020213000782410007C203000A9
:100D20002DE97047ADF2B44D1F4B02937C220D4666
:100D30001E4B0021044603A8984729461C4B02A8D5
:100D40009847012202A9A2A81A4B984718B102A9F4
:100D50002046194B9847A59EDFF864A0DFF8649001
:100D6000DFF864804FF400750446B44214D201AB3E
:100D70002A4622A9A2A8D04770B9019B4FF6FC725F
:100D80001C4403331A4022A94846C047331BB3F51D
:100D9000007F38BF1D46E8E7A2A8084B984701200E
:100DA0000DF2B44DBDE87087303A2F00DDA004008D
:100DB00071A104006F8F04007D0E0400BD8F04003C
:100DC000F98F04006C810020F10104002DE9704FBF
:100DD000ADF5966D204B02930D46204B0021044645
:100DE000924603A87C22984729461D4B02A89847A3
:100DF000012202A9A2A81B4B984718B102A92046BC
:100E0000194B9847A59DDFF868B0DFF86890DFF8C8
:100E100068804FF400760446AC4214D201AB3246EF
:100E200022A9A2A8D84770B9BDF8043004EB0A0182
:100E300022AA4846C047019B1C442B1BB3F5007FE8
:100E400038BF1E46E8E7A2A8084B984728460DF58C
:100E5000966DBDE8708F00BF303A2F00DDA0040012
:100E600071A104006F8F04007D0E0400BD8F04008B
:100E7000F98F04006C810020090404001FB50D46A1
:100E8000044600210E4B984720220E490E4B204667
:100E900098470E480E4B98471E23CDE901534FF457
:100EA000C0630093B0221D23F0212046094DA847BE
:100EB0002046094B98470948094B9847FEE700BF71
:100EC0001506040052A60400950804000000FF0463
:100ED0002D080400F50A0400E50504006C810020DB
:100EE000710204007FB500220F4B04460E4698475E
:100EF000C0B90E4D0E4920222046A84720220D4998
:100F00002046A8471E23CDE901634FF4C063009338
:100F100020461D23BE22F021074DA8472046074B3F
:100F20009847FEE704B070BD210D04009508040049
:100F300052A6040072A60400F50A0400E5050400A8
:100F400008B5094B4FF480229A61084B00881B7842
:100F5000002B14BF4FF442134FF48413C0F30B0063
:100F60001844034B984708BD008000413C81002095
:100F7000BD04040010B50A4C0A4A20780A4B002828
:100F800014BF10461846094B984740F6FF7380B2CD
:100F9000984203D10649074B201D984710BD00BF5A
:100FA0003C810020F8203000E4241000ED0404000F
:100FB00092A604007D0E040090F8303073B504460C
:100FC000002B2AD0C06AF0B110211548154B04F14E
:100FD0000C069847144B30469847E36A94F8315012
:100FE00094F8321058B932462943204698470C48A5
:100FF0000E4B6FF07F4102B0BDE8704018472943A7
:1010000020469847F3E7A3685A1C06D0A288218897
:101010000090DBB20248064CA04702B070BD00BF92
:101020004081002015090400FF1A0400050904008E
:101030004109040080F83210704780F83010704782
:1010400038B500F10C042046054B0D46984728B9E9
:101050000FCD0FC495E80F0084E80F0038BD00BF26
:10106000FF1A040090F83100704780F83110704783
:10107000C1627047436B13B190F831001847704755
:101080002DE9F347284DDFF8B090284FDFF8ACA0EA
:10109000274EDFF8AC80494628460024B84728464A
:1010A0000921D04723462246214628460094B047CE
:1010B00039222346114628460094B04728461D4948
:1010C000B84728465021C04728460221D04723462A
:1010D000284600941E221421B04723462846009437
:1010E0001E222121B04723461E22284600942E218D
:1010F000B04749462846B84728462A21C0472346D4
:10110000284600941E221421B04723462846009406
:101110001E222121B047009423461E222E2128465C
:10112000B04702B0BDE8F087408100200509040007
:1011300041090400BD680200F9ECD600CD080400A6
:10114000250904002DE9F3411B4DDFF884801B497C
:101150001B4F1C4E28460024C04728460921B8478B
:1011600023462246214628460094B047392211469C
:10117000234628460094B04728461349C0472846CE
:10118000124B1821984728460421B8472346284681
:10119000009417221D21B0472346284600941E22A2
:1011A0001621B0470094234625221D212846B0472A
:1011B00002B0BDE8F08100BF40810020F9ECD6000C
:1011C000CD08040041090400BD68020015090400AF
:1011D000050904002DE9F043092185B005463D4F7E
:1011E0003D48DFF810913D4E9046B8473C493A489B
:1011F000C8476A68384800240132234621460094D3
:1012000092B2B0476A6800943B32234692B24FF4E0
:1012100088713148B0476FF07F412F48C847234657
:101220002146AA8800942C48B047AA8800942346F7
:101230004FF488712848B0472A4B2748182198470F
:1012400004212548B8476A6800941732234692B2B1
:10125000F3212148B0476A6800941E32234692B2B7
:10126000FA211D48B0476A6800942532234692B29D
:10127000F3211948B0472B686A68A3421A4B02F160
:101280001E021968194B40460CBF4FF01E094FF063
:101290003C0914B298471E23CDE901034FF4806343
:1012A000009322460B2349460B48114CA0472B685C
:1012B0006BB101210848B8472B686A680648013BB2
:1012C000DBB21132009392B20A231421B04705B069
:1012D000BDE8F083CD0804004081002041090400EE
:1012E000BD68020015090400E0810020F11A040025
:1012F000F50A0400050904002DE9F34105462F4FC6
:101300002F493048DFF8C8802F4EB84709212D48B3
:10131000C0476A682B4800240132234621460094C6
:1013200092B2B0476A6800943B32234692B24FF4BF
:1013300088712448B0476FF07F412248B847AA8897
:101340000094234621461F48B047AA8800942346AC
:101350004FF488711B48B0476FF07F411948B84778
:101360001A4B18481821984704211648C0472B6883
:101370006A680094A342D4BF142728273A4423461E
:1013800092B24FF06A010F48D4BF4FF028084FF0D7
:101390001408B0476A6800944244234692B28821F8
:1013A0000848B0476A6800943A44234692B2A6219E
:1013B0000448B04702B0BDE8F08100BF0509040051
:1013C000BD680200408100204109040015090400A5
:1013D000CD0804002DE9FF4104460D461E481F4B71
:1013E0001F4FDFF894800921164698471D4B1E4970
:1013F0001948002D08BF19460025B847A288218842
:10140000154800952B46C047626821681248009530
:10141000443286312B4692B289B2C0476FF07F4189
:101420000D48B847114B25681968114B6468304660
:101430009847433514232134CDE901032DB224B25A
:101440004FF4C063009322460B2329460248094CFF
:10145000A04704B0BDE8F08140810020CD08040021
:1014600005090400BD6802006B3D0C00E08100200E
:10147000F11A0400F50A0400410904002DE9F043C3
:10148000254DDFF8B0902549254F85B00646284602
:101490009046C84728460921224B98477268002485
:1014A0000132009423462146284692B2B84772681A
:1014B00000943B32234692B228464FF48871B847D5
:1014C00028466FF07F41C847B288009423462146E2
:1014D0002846B847B2880094234628464FF48871BE
:1014E000B84728466FF07F41C8470F4B74681968AA
:1014F0000E4B404698471E341E23CDE9010324B20B
:101500004FF4C063009322460B2388212846084CE1
:10151000A04705B0BDE8F08340810020BD6802000F
:1015200041090400CD080400E0810020F11A040004
:10153000F50A0400050904002DE9F743214CDFF802
:1015400094902149DFF89080204F064620460025E0
:10155000C84720460921C047B288318800952B46EC
:101560002046B8477268316800952832283192B217
:101570002B46204689B2B84720466FF07F41C847C6
:101580002046134B1821984720460421C047726813
:1015900000950E322B46204692B21821B847726849
:1015A000009515322B46204692B21121B847726839
:1015B00000951C322B4692B218212046B84703B042
:1015C000BDE8F08340810020BD68020041090400AD
:1015D0001509040005090400CD0804002DE9F743AE
:1015E000214CDFF894902149DFF89080204F064687
:1015F00020460025C84720460921C047B2883188C7
:1016000000952B462046B84772683168009528320D
:10161000283192B22B46204689B2B84720466FF057
:101620007F41C8472046134B182198472046042184
:10163000C047726800950E322B46204692B2F821C0
:10164000B8477268009515322B46204692B2FF21AA
:10165000B847726800951C322B4692B2F82120469A
:10166000B84703B0BDE8F08340810020BD680200A8
:10167000410904001509040005090400CD0804000F
:101680002DE9F743244CDFF8A0902449DFF89C8033
:10169000234F064620460025C84720460921C0475B
:1016A000B288318800952B462046B8477268316869
:1016B00000952232463192B22B46204689B2B84775
:1016C00020466FF07F41C8472046164B18219847A7
:1016D00020460421C04772683168009512321C31DF
:1016E0002B46204692B289B2B8477268316800959D
:1016F0000B3223312B46204692B289B2B84772682A
:101700003168009512322A312B4692B289B22046B6
:10171000B84703B0BDE8F08340810020BD680200F7
:10172000410904001509040005090400CD0804005E
:101730002DE9F743244CDFF8A0902449DFF89C8082
:10174000234F064620460025C84720460921C047AA
:10175000B288318800952B462046B84772683168B8
:1017600000952232463192B22B46204689B2B847C4
:1017700020466FF07F41C8472046164B18219847F6
:1017800020460421C0477268316800950B321C3135
:101790002B46204692B289B2B847726831680095EC
:1017A000123223312B46204692B289B2B847726872
:1017B000316800950B322A312B4692B289B220460D
:1017C000B84703B0BDE8F08340810020BD68020047
:1017D000410904001509040005090400CD080400AE
:1017E0002DE9F043044685B08946DFF8D0802C48C7
:1017F0002C4F42F6600100251646C04709212848B3
:10180000294B9847A2882188254800952B46B84740
:10181000626821682248009522327A312B4692B2C2
:1018200089B2B847A94521491D4818BF6FF07F41CB
:10183000C047626821681A480095013201312B4681
:1018400092B289B2B8476268216815480095203283
:1018500078312B4692B289B2B847A94542F6600169
:101860000F4808BF6FF07F41C047114B25681968CA
:10187000104B6468304698473E351E231134CDE93D
:1018800001032DB224B24FF4C063009322460B2310
:1018900029460348084CA04705B0BDE8F08300BFC7
:1018A0004081002041090400CD080400BD68020009
:1018B000E0810020F11A0400F50A04000509040083
:1018C00030B5114B85B005460C4610481049984775
:1018D000104B11490D48002C08BF19460F4B984773
:1018E00064420F4B0393A4B21B234FF48070CDE9E5
:1018F00000300294B5F90420B5F900100348094CF2
:101900001E23A04705B030BD9D0904004081002082
:10191000DDDDDD00BBBBBB00B8F65E008109040065
:10192000A8A60400A10B04002DE9F743224CDFF820
:101930009490DFF89480214E074642F660012046DD
:10194000C84720460921C0477A68002501322B4646
:101950002046009592B2D421B0477A68009576323D
:1019600092B22B4620464FF48871B04720466FF064
:101970007F41C8472046124B182198472046042132
:10198000C0477A68009537322B46204692B2EE2146
:10199000B0477A6800953E322B46204692B2F52138
:1019A000B0477A68009545322B4692B2EE21204628
:1019B000B04703B0BDE8F083408100204109040036
:1019C0001509040005090400CD08040000292DE9CB
:1019D000FF4114BF4FF430014FF47F010546DFF89B
:1019E000A0802148214E1746C04709211E48204BA0
:1019F00098476A681C480024013200942346214617
:101A000092B2B0476A6800943B32234692B24FF4D8
:101A100088711548B0476FF07F411348C047AA88C6
:101A20000094234621461048B047AA8800942346D4
:101A30004FF488710C48B0470E4B6C6819680E4B18
:101A4000384698471E341E23CDE9010324B24FF4D3
:101A5000C063009322460B2388210348074CA0470C
:101A600004B0BDE8F08100BF4081002041090400BE
:101A7000CD080400E0810020F11A0400F50A0400FA
:101A800005090400014B43F82010704774810020C1
:101A900010B50B4C636E3BB11A68A366184612680A
:101AA00090470023636610BD54F82000A36E98424F
:101AB000F9D00368A0661B68BDE81040184700BF56
:101AC0007481002010B5044B0C469847034B53F823
:101AD00024205A6610BD00BF911A040074810020B2
:101AE000024B986E03685B68184700BF7481002042
:101AF00050F821301A7802B9036818467047036815
:101B00001878B0FA80F0400970470000024B0728AF
:101B100088BF002018607047E08100202DE9F04761
:101B2000431E1E211D240F251C260E274FF01B0CC3
:101B30004FF00D0E4FF012084FF0040913F8012F6B
:101B4000002A00F0F78012F0800F04D1092AF5D1A5
:101B500020221A70F2E7A93A532AEFD80FF2040AAA
:101B60005AF822F02D1D04003D1B04003D1B04000B
:101B70003D1B04003D1B0400311D04003D1B0400FF
:101B8000B51C04003D1B04003D1B04003D1B04006C
:101B90003D1B04003D1B04003D1B04003D1B0400D5
:101BA0003D1B04003D1B04003D1B04003D1B0400C5
:101BB0003D1B04003D1B04003D1B04003D1B0400B5
:101BC000D91C04003D1B04003D1B04003D1B040008
:101BD000E91C0400091D04003D1B0400211D040034
:101BE000E11C0400B91C04003D1B04003D1B040063
:101BF0003D1B0400C11C04003D1B04003D1B0400F0
:101C00003D1B0400151D04003D1B0400C91C0400FD
:101C10003D1B04003D1B0400F11C04003D1B04009F
:101C20003D1B04003D1B0400D11C0400011D0400E9
:101C3000F91C04003D1B04003D1B0400291D040089
:101C4000DD1C04003D1B04003D1B04003D1B040083
:101C5000ED1C04000F1D04003D1B0400251D0400A5
:101C6000E51C0400BD1C04003D1B04003D1B0400DA
:101C70003D1B0400C51C04003D1B04003D1B04006B
:101C80003D1B04001B1D04003D1B0400CD1C040073
:101C90003D1B04003D1B0400F51C04003D1B04001B
:101CA0003D1B04003D1B0400D51C0400051D040061
:101CB000FD1C040001224CE705224AE7132248E7F5
:101CC000072246E7152244E7082242E7162240E7AA
:101CD0000A223EE718223CE702223AE7102238E7C0
:101CE000062236E7142234E7032232E7112230E7D6
:101CF00009222EE717222CE70B222AE7192228E7D0
:101D00000C2226E71A2224E783F8009016E783F8CE
:101D1000008013E783F800E010E783F800C00DE7C8
:101D20001F700BE71E7009E71D7007E71C7005E7C1
:101D3000197003E7BDE8F08770B54E4C4E484F4B25
:101D40004F4D0321984720784E4B4F494FF4F07286
:101D5000002808BF19464848A84720784B4B4C49F3
:101D60004FF48872002808BF19464348A8472078D6
:101D7000484B49494FF40972002808BF19463E48AC
:101D8000A8472078454B46492B22002808BF194612
:101D90003948A8472078434B43490022904208BF66
:101DA00019463548A8472078404B41492922002848
:101DB00008BF19463048A84720783E4B3E494FF4AB
:101DC0009272002808BF19462B48A84720783B4B41
:101DD0003B490C22002808BF19462748A84720780D
:101DE000384B39490022904208BF19462248A8477B
:101DF0002078364B36490A22002808BF19461E486B
:101E0000A8472078334B34490522002808BF1946DB
:101E10001948A8472078314B31490122002808BFD2
:101E200019461548A84720782E4B2F490122002833
:101E300008BF19461048A84720782C4B2C4901228E
:101E4000002808BF19460C48A8472078294B2A4982
:101E50000222002808BF19460748A8472078274BC8
:101E600027490022904208BF1946BDE87040024849
:101E7000244B18473C8100204081002015060400B7
:101E8000490C040030241000342030004424100099
:101E900048203000282410002C2030002C24100072
:101EA0003020300034241000382030003824100056
:101EB0003C2030003C241000402030004024100022
:101EC00044203000482410004C2030004C241000E6
:101ED000502030006C241000702030006824100066
:101EE0006C20300064241000682030005C24100056
:101EF000602030005424100058203000602410006E
:101F000064203000350C04002DE9F3470333174CEF
:101F1000DFF86CA023F003055FFA80F80E469146C7
:101F200005F1940741462046114B98473A464946E9
:101F30002046104B984796F88C1096F8883096F803
:101F400080200091814639462046D04732462946B6
:101F500020469423084EB04720462A464146074B68
:101F6000984707EB090002B0BDE8F08740810020E8
:101F7000D9080400CD0D04005D0C0400990A04008A
:101F8000F50B040070B5104E104D1149114B124C59
:101F900030469847114B124A29460B20A047114A58
:101FA000034605F194010C20A0470F4A034605F5AE
:101FB00094710D20A0470D4A034605F5DE710E20F1
:101FC000A047B06070BD00BF408100202FA7040073
:101FD0007FA90400E50E0400091F0400E4C90A00FB
:101FE0008AA9040098A90400A6A90400B3A90400C2
:101FF000F7B5164B1649174E174D07461748984721
:10200000174B1648984701211448B04700246FF039
:102010007F411248134B9847009406231122CA218E
:102020000E48A8477FB109210C48B04723463C22FF
:1020300021460A480094A847009423463C224FF4C6
:1020400088710648A84703B0F0BD00BFE50804004A
:10205000F9ECD600CD0804004109040040810020BD
:10206000F508040005090400012A08BF01600020EA
:102070007047012A08BF0160002070472DE9F04138
:10208000134C144D207080F001070023064639469A
:1020900004F134006360A847394604F16C00A84796
:1020A000394604F1A400A847394604F1DC00A847EA
:1020B000314604F58A70A847074B084904F5A67015
:1020C000002E08BF1946064BBDE8F041184700BF77
:1020D000E48100203B10040081100400451104003D
:1020E0007110040099B10E4B1B78BBB90D4B93F8DE
:1020F00084219AB9012183F884110221C3F888113F
:10210000C3F88C21084B01461B6808481847054B4B
:10211000074883F88411044B1B681847704700BFB9
:10212000539A0020E4810020549A002020AA040041
:1021300024AA0400034B00225A600146024B4820A7
:10214000184700BFE4810020E52004000146014B50
:1021500041201847E52004000146014B5320184751
:10216000E52004000146014B43201847E520040008
:1021700058B9064B1A780AB1054B1847054B197820
:1021800001B11A700320044B18477047E481002006
:102190007D200400539A0020911A04000120014B75
:1021A000184700BF7D200400034B4FF4FA62C3F8C8
:1021B00090210020014B1847E48100207D2004007D
:1021C0002DE9F04F594C5A4B5A4F5B4E85B00020C9
:1021D00098472578002D47D109215848B8472B4604
:1021E0004FF49472294655480095B04700952B4608
:1021F0004FF4DC724FF488715048B04701214F48CA
:10220000B84794F88451002D46D0002594F88831C1
:1022100000952A464C214948B047D4F88C31013307
:10222000012B2ED8C4F88C31D4F890314FF4FA71C8
:102230000133C4F89031B3FBF1F201FB12330BB957
:102240003F4B98473F4B1B780BB13F4B9847D4F817
:102250009031B3F5FA6F65D30023C4F890313B4B4E
:1022600005B0BDE8F04F184794F884010028C5D1A7
:1022700063680133B3F5967F6360BFD3344B9847EF
:10228000BCE7D4F88831C4F88C510133042B88BFE3
:102290000223C4F88831C7E7052382222946DFF8E4
:1022A000C8B000952548DFF8C480DFF8C4A0B04767
:1022B00042F660012148274EC047DBF8001026484F
:1022C000D0471E274FF4C069CDE901070C235022E7
:1022D000CDF8009088211948B047DBF800101F485E
:1022E000D0470C23CDE901076E22CDF8009088215C
:1022F0001248B04729461148C047194B0297CDE90B
:1023000000534FF4E1720D230F210C48B047154BD9
:102310000297CDE900534FF4E1720D23CA2107481B
:10232000B04781E705B0BDE8F08F00BFE481002031
:10233000F11F0400CD080400410904004081002081
:10234000D58A0400509A0020258D0400759504005C
:102350007D200400F50A0400E0A9040000AA04009E
:10236000F4800020E8800020E081002005090400BE
:10237000F11A040010B58368044613B10322014624
:102380009847204610BD000038B5054B054D044662
:1023900040F8183BA84704F10800A847204638BD7C
:1023A000D8A904007523040038B5002383608B6826
:1023B00004460D462BB102229847EB68E360AB68F8
:1023C000A360204638BD00002DE9F04FADF5017D3A
:1023D000AB4B0793AB4B0693AB4B039308ACAB4BA8
:1023E000AB4E02931C22002109A8B047A94B2360E1
:1023F0000123226844F823200133082BF9D10FCCA4
:1024000021AD0FC594E80F0085E80F0000214FF0C3
:10241000FF33CDE91011202213A81293B0479E4933
:1024200012AB1AAA43F8041F9A42FBD19B4B1B9391
:102430009B4B1D939B4B2F939B4B30939B4B31930B
:102440009B4B32939B4B33939B4B34939B4B3593DA
:102450009B4B36939B4B3D939B4B3E939B4B3F93A8
:102460009B4B40939B4B41939B4B42939B4B439382
:1024700044939B4B4B939B4B4C939B4B4D939B4B50
:102480004E939B4B4F939B4B50939B4B51939B4B2A
:1024900052939B4B59935A939A4B5B930025012679
:1024A000994B8DF871508DF872508DF870605C9377
:1024B000964B5D93964B5E93964B5F934FF0FF3731
:1024C0004FF49578944B6093CDE91F87934B2993F4
:1024D000934B8DF8AA50ADF8A8602B931E951EACB7
:1024E0000FCC0DF5C87CACE80F000FCCACE80F00AA
:1024F0000FCCACE80F0094E8030010AC8CE80300AC
:102500000FCC0DF5E47CACE80F000FCCACE80F006D
:102510000FCCACE80F0094E80300DFF83892814B51
:10252000814C8CE80300C9E9023509F10801022059
:102530007E4B98477E4BC9F8083004A909F110007A
:10254000A047694609F12000A047CDE92C58DFF8E3
:1025500008E2784BCDF8DCE08DF8E250ADF8E060B1
:1025600039932E972CAC0FCC09F1340CACE80F004A
:102570000FCCACE80F000FCCACE80F004FF4B97AE9
:10258000C9F8305094E80300CDE93BA76A4BCDF879
:1025900014E18DF81A51ADF8186147933A953AACA9
:1025A0008CE803000FCC09F16C0CACE80F000FCCE9
:1025B000ACE80F000FCCACE80F0094E803008CE807
:1025C00003004FF08A0B5D4BCDF84CE18DF8525172
:1025D000ADF850615593CDF820B1CDF824814A97DC
:1025E0000DF5907CBCE80F0009F1A4040FC4BCE811
:1025F0000F000FC4BCE80F000FC49CE80300504B51
:10260000CDF884E18DF88A51ADF888616393CDF8F7
:1026100058B1CDF85CA1589756AD84E803000FCDB2
:1026200009F1DC040FC40FCD0FC40FCD0FC495E822
:10263000030064AD84E803000FCD09F58A740FC46C
:102640000FCD0FC40FCD0FC495E8030072AD84E821
:1026500003000FCD09F5A6740FC40FCD0FC40FCD25
:102660000FC495E8030084E80300364C6846A04791
:1026700004A8A047344A3549354B09F108006DE0FC
:10268000A921040069200400C12104007320040072
:10269000DDA0040029AA0400B0B1040081100400E8
:1026A0007121040036AA04003BAA040040AA0400D9
:1026B00046AA04004BAA040050AA040055AA04002C
:1026C0005BAA040032AA040061AA040066AA0400FE
:1026D0006CAA040075AA04007AAA040084AA040063
:1026E0008AAA040094AA04009FAA0400A9AA0400CC
:1026F000B5AA0400C7AA0400CFAA0400D8AA0400FF
:10270000E1AA0400E9AA0400F2AA0400FBAA04005A
:102710000EAB040014AB04001EAB0400CD19040082
:1027200035210400C8A90400A9230400851A040067
:10273000D8A90400652104009D210400592104004A
:102740004D2104007523040000800020892304002B
:10275000B5A00400E4810020D513040098470DF5CE
:10276000017DBDE8F08F00BF826810B50AB9034B48
:102770009847C368BDE81040184700BFC18E0400E9
:1027800008B5036913B10830014B984708BD00BF75
:10279000692704002DE9F14F036A044613B118308C
:1027A000264B984704F12C05DFF8A880DFF8A890A5
:1027B0002F460126F1B22248C04701363846C847A5
:1027C000072E07F13807F5D100211D48DFF88CB03E
:1027D000DFF88CA0C0471A481A4B98471A4B184884
:1027E0009847174B1F7F00260136BB1BD3F100080B
:1027F000284648EB0308D847414681462846D0473B
:10280000C14503D02846114B984703E0062E05F139
:102810003805E9D127B10023A36201B0BDE8F08FEC
:10282000A36A47F22F520A339342F5D96068084BE6
:10283000A76201B0BDE8F04F184700BF6927040048
:1028400040810020E5050400850C0400751004009B
:10285000911A040035090400B90F04006510040042
:102860006B100400004B1847C923040010B58360A7
:10287000029BC161C0E90012C0E90331C0E9051142
:1028800010BD012A08BF01600020704710B909205F
:10289000014B1847704700BF911A040010B9082077
:1028A000014B1847704700BF911A040010B904206B
:1028B000014B1847704700BF911A040010B902205D
:1028C000014B1847704700BF911A040010B90C2043
:1028D000014B1847704700BF5D6E040010B90B2014
:1028E000014B1847704700BF5D6E040010B90A2005
:1028F000014B1847704700BF5D6E040010B90520FA
:10290000014B1847704700BF5D6E04000120014B6A
:10291000184700BFF11F040038B5054B054D0446AC
:1029200040F8183BA84704F10800A847204638BDE6
:1029300000AC0400752304002DE9F04FADF28C4D7E
:10294000B04B05930021B04B08910493A4914FF034
:10295000FF33A5912022A7A8AC4EA693B047AC495F
:10296000A6ABAEAA43F8041F9342FBD1A94BAF9389
:10297000A94BB193A94B009300271A46A849A94C2B
:102980008DF8C17201253AA88DF8C0528DF8C27237
:10299000A0473AAC0FCC0DF5197CACE80F0094E8D9
:1029A0000F008CE80F00A04AA04B00931146A04BEB
:1029B000A04C32A8A04732AC0FCC0DF50B7CACE894
:1029C0000F0094E80F008CE80F009B4B00939B4A8C
:1029D0009B4B9C499C4C2AA8A0472AAC0FCC0DF5D8
:1029E000FA7CACE80F0094E80F008CE80F00974BDE
:1029F0000093974A974B9849984C22A8A04722AC3D
:102A00000FCC0DF5DE7CACE80F0094E80F001AAC9B
:102A10008CE80F001C2239461BA8B047904B23605E
:102A2000236844F825300135082DF9D10FCC61AD6C
:102A30000FC594E80F0085E80F008A4B00938A4A7F
:102A40008A4B8B498B4C12A8A04712AC0FCC53ADCC
:102A50000FC594E80F0085E80F00874B0093874A65
:102A6000874B8849884C0AA8A0470AAC0FCC45ADD3
:102A70000FC594E80F00A4AC85E80F000FCC0DF54E
:102A80003278A8E80F000FCCA8E80F000FCCA8E818
:102A90000F0094E803003C23DFF808E297934FF01F
:102AA000010C4FF000094FF0FF3A784BCDF884E26B
:102AB000ADF888C2CDF858C2CDF860A28DF88A92E0
:102AC000A39396AC88E803000FCCC0AF0FC70FCC20
:102AD0000FC70FCC0FC7022394E803008893782315
:102AE00089936B4BCDF84CE2CDF828A2ADF850C2DB
:102AF0008DF85292959388AC87E803000FCCCEAE48
:102B00000FC60FCC0FC60FCC0FC6032394E80300EB
:102B10007A93B4237B935F4BCDF814E2CDF8F0A108
:102B2000ADF818C28DF81A9287937AAC86E8030044
:102B30000FCCDCAD0FC50FCC0FC50FCC0FC50423D8
:102B400094E803006C93F0236D93534BCDF8DCE1D4
:102B5000CDF8B8A1ADF8E0C18DF8E29179936CACF5
:102B600085E803000FCC0DF56A7BABE80F000FCCB6
:102B7000ABE80F000FCCABE80F00052394E803008F
:102B80005E934FF496735F93444BCDF8A4E1CDF878
:102B900080A1ADF8A8C18DF8AA916B935EAC8BE8CB
:102BA00003000FCC0DF5787BABE80F000FCCABE842
:102BB0000F000FCCABE80F00062394E803005093FE
:102BC0004FF4B4735193364BCDF86CE1ADF870C14E
:102BD0008DF872915D9350ACCDF848A18BE803005D
:102BE0000FCC0DF5836BABE80F000FCCABE80F00FB
:102BF0000FCCABE80F0094E80300072342934FF497
:102C0000D27351E00D29040083280400DDA00400E4
:102C1000B0B1040045110400BD280400EFAF04006A
:102C200008AC04006D280400E4B2040018B30400EA
:102C300006B304006D2804003BAC040022AC040081
:102C400015AC04002FAC04006D28040060AC040037
:102C50004FAC040048AC040057AC04006D280400DD
:102C600067AC040094AC04007DAC040071AC0400BB
:102C700088AC04006D280400BCAC0400A7AC0400C0
:102C8000A0AC0400B3AC04006D280400AD2804001F
:102C9000FD2804009D2804008D280400ED28040070
:102CA000DD280400D511040043935E4BCDF834E1D8
:102CB0008BE80300CDF810A142ACADF838C18DF817
:102CC0003A914F930FCC0DF58A6CACE80F000FCC06
:102CD000ACE80F000FCCACE80F0094E80300524CB6
:102CE000524B236002238CE80300636021460320DB
:102CF0004F4BDFF854A1984720464E4B40F8083B15
:102D000006A9D04702A904F11800D0470DF5327C7E
:102D1000BCE80F0004F12C0EAEE80F00BCE80F0079
:102D2000AEE80F00BCE80F00AEE80F0098E8030023
:102D30000DF5407CC4F828908EE80300BCE80F0035
:102D400004F1640EAEE80F00BCE80F00AEE80F001F
:102D5000BCE80F00AEE80F0097E80300CEAF8EE8A6
:102D600003000FCF04F19C0CACE80F000FCFACE8D0
:102D70000F000FCFACE80F0096E80300DCAE8CE844
:102D800003000FCE04F1D4070FC70FCE0FC70FCE2D
:102D90000FC795E80300EAAE87E803000FCE04F5FD
:102DA00086750FC50FCE0FC50FCE0FC596E8030071
:102DB000F8AE85E803000FCE04F5A2750FC50FCE5F
:102DC0000FC50FCE0FC596E803000DF5836685E8A5
:102DD00003000FCE04F5BE750FC50FCE0FC50FCE85
:102DE0000FC596E803000DF58A6685E803000FCE4F
:102DF00004F5DA750FC50FCE0FC50FCE0FC596E8D7
:102E0000030085E803000C4D02A8A84706A8A847C0
:102E10000A4A0B490B4B204698470DF28C4DBDE8F2
:102E2000F08F00BFCD28040078830020C8A90400DB
:102E3000851A040000AC0400752304000080002003
:102E400019290400B5A00400A923040008B50369EA
:102E500013B10830014B984708BD00BF6927040033
:102E60002DE9F14F036A044613B11830264B9847F9
:102E700004F12C05DFF8A880DFF8A8902F46012682
:102E8000F1B22248C04701363846C847092E07F13B
:102E90003807F5D100211D48DFF88CB0DFF88CA091
:102EA000C0471A481A4B98471A4B18489847174B6F
:102EB0001F7F00260136BB1BD3F10008284648EBD4
:102EC0000308D847414681462846D047C14503D02C
:102ED0002846114B984703E0082E05F13805E9D143
:102EE00027B10023A36201B0BDE8F08FA36A47F2C7
:102EF0002F520A339342F5D96068084BA76201B09C
:102F0000BDE8F04F184700BF69270400408100204A
:102F1000E5050400850C040075100400911A0400F6
:102F200035090400B90F0400651004006B1004009B
:102F3000004B18473929040038B5202204460D46B5
:102F4000074B00219847234604F1200243F8045B15
:102F5000216843F8041B9342FAD1204638BD00BFD4
:102F6000DDA00400012A08BF016000207047012A8B
:102F700008BF01600020704710B90320014B1847BB
:102F8000704700BF911A04001FB50D4C0D4B012076
:102F9000984720460C490D4B98470D4B0D48196832
:102FA0000D4B98471E23CDE901034FF4C0630093F6
:102FB00020460E235A228821084CA04704B010BD99
:102FC00040810020F11F0400BD68020005090400D3
:102FD000E0810020D8AC0400F11A0400F50A0400D6
:102FE00073B50446684680E8060003C81E4604F12F
:102FF0000C054FF0FF3384E80500A36020220D4B41
:103000000021284698470C4B04F12C02AA4202D01A
:1030100045F8043BFAE7012384F83030002384F8B4
:10302000313084F83230069BE6622046636302B09A
:1030300070BD00BFDDA00400B0B1040038B5054B81
:10304000054D044640F8183BA84704F10800A8477E
:10305000204638BDD0AC04007523040010B50446EA
:10306000064B006898472068054B9847054B9847E2
:103070000320054BBDE81040184700BF0D1B04009E
:1030800079980400F1900400911A040007B528B95A
:1030900002A8072340F8043D024B984703B05DF8AF
:1030A00004FB00BF5D30040007B528B902A8062361
:1030B00040F8043D024B984703B05DF804FB00BFA5
:1030C0005D30040007B528B902A8052340F8043D87
:1030D000024B984703B05DF804FB00BF5D3004006D
:1030E00007B528B902A8042340F8043D024B9847CD
:1030F00003B05DF804FB00BF5D30040007B528B9DC
:1031000002A8012340F8043D024B984703B05DF844
:1031100004FB00BF5D30040007B528B902A80323F3
:1031200040F8043D024B984703B05DF804FB00BF34
:103130005D30040007B528B902A8022340F8043D19
:10314000024B984703B05DF804FB00BF5D300400FC
:1031500007B528B902AB43F8040D1846024B98474F
:1031600003B05DF804FB00BF5D3004002DE9F041C1
:103170000D4F0E4D04460026B81921463836A84793
:10318000B6F5A87FF8D184F0010421460848A84785
:1031900021460848A84721460748A84721462B460C
:1031A0000648BDE8F0411847C88500203B100400E0
:1031B000188700205087002088870020C0870020C3
:1031C00010B90120014B1847704700BF6D31040052
:1031D00008B9014B184770476D3104000120014BBD
:1031E000184700BF6D3104002DE9F047ADF5C26D01
:1031F000B74B0F93B74B0E930025B74B0B93CDE90D
:103200000655B64B0A93B64B009306AA06CADFF8DA
:1032100024A3B44BDFF82093DCA8D04748ACB249D4
:1032200048A8C8470FCCD1AE0FC694E80F0040ACF9
:1032300086E80F00AD49AE4B40A898470FCCC3AE0F
:103240000FC694E80F0038AC86E80F00A94938A8EB
:10325000C8470FCCB5AE0FC694E80F0030AC86E877
:103260000F00A54930A8C8470FCCA7AE0FC694E8F9
:103270000F0028AC86E80F00A049A14B28A898476A
:103280000FCC99AE0FC694E80F004FF0FF3786E8D9
:103290000F004FF4D273CDE904739A4C9A4B00930C
:1032A00004AA0126234606CA4FF0780888A8D0470A
:1032B000CDE90268954B009302AA234606CA7AA874
:1032C000D04720AC924920A8C8470FCC0DF5DE7C32
:1032D000ACE80F0094E80F00DFF860928CE80F0074
:1032E00018AC8C4918A8C8470FCC0DF5C27CACE8C7
:1032F0000F0094E80F0010AC8CE80F00864910A86E
:10330000C8470FCC0DF5A67CACE80F0094E80F0081
:10331000DCAC8CE80F000FCC0DF56A7CACE80F003C
:103320000FCCACE80F000FCCACE80F0094E8030022
:103330007A4BADF868638CE80300DFF804C2CDF87F
:1033400064C38DF86A53CE95CDF83C83DB93D09758
:10335000CEAC0FCC0DF5787EAEE80F000FCCAEE80A
:103360000F000FCCAEE80F0094E803004FF0B40953
:103370006B4BCDF82CC3C095CDF80493ADF83063FA
:103380008DF83253C297CD93C0AC8EE803000FCCBA
:103390000DF5836EAEE80F000FCCAEE80F000FCC3A
:1033A000AEE80F0094E803004FF0F0085D4BCDF855
:1033B000F4C2B295CDF8CC82ADF8F8628DF8FA522D
:1033C000B497BF93B2AC8EE803000FCC0DF58A6EB4
:1033D000AEE80F000FCCAEE80F000FCCAEE80F0048
:1033E00094E80300504BCDF8BCC28EE803004FF4C4
:1033F000967ECDF894E2A495ADF8C0628DF8C252E5
:10340000A697B193A4AC0FCC0DF5916AAAE80F0072
:103410000FCCAAE80F000FCCAAE80F0094E8030035
:103420004FF4B4739793414BCDF884C29695ADF8A1
:1034300088628DF88A529897A39396AC8AE8030025
:103440000FCC0DF5986AAAE80F000FCCAAE80F0080
:103450000FCCAAE80F0094E8030088AC8AE80300C8
:103460000FCC0DF59F6AAAE80F000FCCAAE80F0059
:103470000FCCAAE80F0094E803007AAC8AE80300B6
:103480000FCC0DF5A66AAAE80F000FCCAAE80F0032
:103490000FCCAAE80F0094E80300254BCDF8DCC15F
:1034A0006C95CDF8B491ADF8E0618DF8E2516E976E
:1034B00079936CAC8AE803000FCC0DF5AD69A9E8EF
:1034C0000F000FCCA9E80F000FCCA9E80F0039E0DE
:1034D000DD310400652F0400892F04006F2F0400E4
:1034E000792F040045110400F8AC040000AD04007D
:1034F000392F040009AD040011AD040019AD04001A
:10350000392F0400F9120400D1310400C131040044
:1035100024AD04002CAD040032AD04005131040090
:103520003531040019310400FD300400E13004009D
:10353000C5300400E12F0400392F0400392F0400A6
:10354000D511040094E80300784BCDF8A4C15E9532
:10355000CDF87C81ADF8A8618DF8AA5160976B9386
:103560005EAC89E803000FCC0DF5B468A8E80F0045
:103570000FCCA8E80F000FCCA8E80F0094E80300D8
:103580006B4BCDF844E1CDF86CC15095ADF870614E
:103590008DF8725152975D9350AC88E803000FCCC0
:1035A0000DF5BB660FC60FCC0FC60FCC0FC694E847
:1035B000030086E803005F4E5F4B336003237360B4
:1035C000314609205D4B5E4C984730465D4B40F8D4
:1035D000083B0CA9A04708A906F11800A047EAACCF
:1035E0000FCCB56206F12C050FC50FCC0FC50FCC63
:1035F0000FC594E80300F8AC85E803000FCC06F192
:1036000064050FC50FCC0FC50FCC0FC594E80300A0
:103610000DF5836485E803000FCC06F19C050FC50A
:103620000FCC0FC50FCC0FC594E803000DF58A64CD
:1036300085E803000FCC06F1D4050FC50FCC0FC5EC
:103640000FCC0FC594E803000DF5916485E80300E5
:103650000FCC06F586750FC50FCC0FC50FCC0FC567
:1036600094E803000DF5986485E803000FCC06F597
:10367000A2750FC50FCC0FC50FCC0FC594E8030082
:103680000DF59F6485E803000FCC06F5BE750FC5E8
:103690000FCC0FC50FCC0FC594E8030085E80300DD
:1036A0000DF5A6650FCD06F5DA740FC40FCD0FC466
:1036B0000FCD0FC495E803000DF5AD6584E8030058
:1036C0000FCD06F5F6740FC40FCD0FC40FCD0FC488
:1036D00095E803000DF5B46584E803000FCD06F509
:1036E00009740FC40FCD0FC40FCD0FC495E80300AC
:1036F0000DF5BB6584E803000FCD06F517740FC404
:103700000FCD0FC40FCD0FC495E8030084E803006C
:103710000D4C08A8A0470CA8A0470C4A0C490D4B1B
:10372000304698470DF5C26DBDE8F087A93004001A
:103730008D30040064850020C8A90400851A0400A7
:10374000A9230400D0AC04007523040000800020ED
:103750003D300400B5A0040008B5036913B108307A
:10376000014B984708BD00BF692704002DE9F14FC0
:10377000036A044613B11830264B984704F12C0510
:10378000DFF8A880DFF8A8902F460126F1B2224882
:10379000C04701363846C8470C2E07F13807F5D127
:1037A00000211D48DFF88CB0DFF88CA0C0471A4814
:1037B0001A4B98471A4B18489847174B1F7F0026FB
:1037C0000136BB1BD3F10008284648EB0308D84755
:1037D000414681462846D047C14503D02846114B73
:1037E000984703E00B2E05F13805E9D127B10023F6
:1037F000A36201B0BDE8F08FA36A47F22F520A33EB
:103800009342F5D96068084BA76201B0BDE8F04F5C
:10381000184700BF6927040040810020E505040027
:10382000850C040075100400911A04003509040089
:10383000B90F0400651004006B100400004B18471A
:10384000E9310400012A08BF016000207047000030
:1038500040B9054B054A1A60054B064A1A600E200E
:10386000054B1847704700BF3099002098AD040001
:103870002C990020B9990400911A040010B9112064
:10388000014B1847704700BF911A040010B910206F
:10389000014B1847704700BF911A040010B90F2060
:1038A000014B1847704700BF911A040058B9064BE6
:1038B000064A1A60064B13221A60064B064A1A6023
:1038C0000E20064B1847704730990020B8AD040011
:1038D000D88000202C990020D9990400911A040066
:1038E00010B90D20014B1847704700BF911A040012
:1038F00010B90320014B1847704700BF911A04000C
:103900001FB50D4C0D4B0120984720460C490D4B1F
:1039100098470D4B0D4819680D4B98471E23CDE96C
:1039200001034FF4C063009320460E235A228821DE
:10393000084CA04704B010BD40810020F11F0400D6
:10394000BD68020005090400E0810020D8AD040034
:10395000F11A0400F50A040038B5054B054D04467C
:1039600040F8183BA84704F10800A847204638BD96
:1039700090AD0400752304002DE9F047ADF50E7DF0
:10398000A94B03930021A94B06910293CDE91E1187
:103990004FF0FF332022A64C209321A8A047A54832
:1039A00020AA28A9234642F8040F9142FBD1A24A3B
:1039B0002992A24A2B920021012508AC1C2209A8B9
:1039C0008DF8A8508DF8A9108DF8AA1098479C4B37
:1039D00023602B46226844F823200133082BF9D1B9
:1039E0000FCC13AD0FC594E80F001EAC85E80F0097
:1039F0000FCC2CAD0FC50FCC0FC50FCC0FC5914A06
:103A00003E92914A3F92914A4092914A4C92914AF9
:103A10004D92914A914B4E9294E80300904A3D9307
:103A200041934293439344935A928E4B8E4A4B93C5
:103A30004F935093519352935B928C4B8C4A599372
:103A400085E803005C925D935E935F936093894B7E
:103A500067936B936C936D936E93874A874B6892D1
:103A600000267593769379937A937B937C93844A1B
:103A700069924FF4D273CDE91063824ADFF838823D
:103A80006A924FF0FF3901277F4A804B7792CDF839
:103A90004890CDF86C80ADF870708DF872601D9311
:103AA0007B4A789210AC0FCC0DF5007CACE80F008F
:103AB0000FCCACE80F000FCCACE80F00DFF8FCA196
:103AC000744BCAF8003094E8030003238CE8030029
:103AD000CAF8043051460C206F4B704C9847504642
:103AE0006F4B40F8083B04A9A04769460AF118004B
:103AF000A0472CAC0FCC0AF12C0CACE80F000FCC7B
:103B0000ACE80F000FCCACE80F0095E80300782379
:103B1000CDE93B39634BCAF828608CE803003A963C
:103B20003AACCDF81481ADF818718DF81A6147934D
:103B30000FCC0AF164050FC50FCC0FC50FCC0FC514
:103B400094E80300B42385E8030048964993564B54
:103B5000ADF850718DF852615593CDF84C81CDF888
:103B6000289148AC0FCC0AF19C050FC50FCC0FC5AE
:103B70000FCC0FC594E80300F02385E803005793AA
:103B80004A4BCDF88481ADF888718DF88A616393D2
:103B90005696CDF8609156AD0FCD0AF1D4040FC4FE
:103BA0000FCD0FC40FCD0FC495E803004FF49673EB
:103BB00065933F4BCDF8BC81ADF8C0718DF8C26103
:103BC00071936496CDF8989164AD84E803000FCDAD
:103BD0000AF586740FC40FCD0FC40FCD0FC495E83E
:103BE00003004FF4B4737393324BCDF8F481ADF806
:103BF000F8718DF8FA617F937296CDF8D09172AD1D
:103C000084E803000FCD0AF5A2740FC40FCD0FC4D2
:103C10000FCD0FC495E8030080AD84E803000FCDFD
:103C20000AF5BE740FC44BE00139040045380400A6
:103C3000DDA00400B0B1040045110400F138040017
:103C4000F8AD04000CAE04001AAE04002DAE040062
:103C50004FAE040058AE040066AE040001AE04008E
:103C600080AE040038AE040090AE040070AE0400D4
:103C7000A1AE0400B4AE0400C3AE0400FAAE04006A
:103C8000D2AE0400E5AE040003AF040051380400D6
:103C900010AF0400C8A90400851A0400A923040079
:103CA00090AD0400E1380400AD3804009D380400F4
:103CB0008D3804007D380400D5110400F8870020F9
:103CC0000FCD0FC40FCD0FC495E8030084E80300A7
:103CD000064C6846A04704A8A047054A0549064B7C
:103CE000504698470DF50E7DBDE8F087752304001A
:103CF0000080002059390400B5A0040008B503690C
:103D000013B10830014B984708BD00BF6927040074
:103D10002DE9F14F036A044613B11830264B98473A
:103D200004F12C05DFF8A880DFF8A8902F460126C3
:103D3000F1B22248C04701363846C847082E07F17D
:103D40003807F5D100211D48DFF88CB0DFF88CA0D2
:103D5000C0471A481A4B98471A4B18489847174BB0
:103D60001F7F00260136BB1BD3F10008284648EB15
:103D70000308D847414681462846D047C14503D06D
:103D80002846114B984703E0072E05F13805E9D185
:103D900027B10023A36201B0BDE8F08FA36A47F208
:103DA0002F520A339342F5D96068084BA76201B0DD
:103DB000BDE8F04F184700BF69270400408100208C
:103DC000E5050400850C040075100400911A040038
:103DD00035090400B90F0400651004006B100400DD
:103DE000004B184779390400012A08BF0160002000
:103DF0007047012A08BF01600020704710B90320F6
:103E0000014B1847704700BF911A040010B5094BC9
:103E10009847094B9847094B9847094B9847094BD6
:103E20009847094B9847094B9847094BBDE8104004
:103E3000184700BF49950400FD9504002196040031
:103E4000519604007D960400A19604003597040065
:103E5000919704002DE9F04701208CB0634BDFF807
:103E6000E0A1DFF8E091624D624CDFF8DC81984719
:103E700061496248624B9847624B634ADAF8001026
:103E8000049304A8CDE90723CDE90522CDE9093340
:103E90000B93C84700261E27CDE901070C235022AB
:103EA000142156480096A047CDE900650B236E22E9
:103EB000142152480297A04705F13203CDE900636F
:103EC00082220B2315214D480297A04705F1640378
:103ED000CDE9006396220B23142148480297A0479E
:103EE0004A4B46481B686E22CDE900638C210B23A8
:103EF000C047474B41480297CDE9006382220B231C
:103F00008C21A047434B3D480297CDE900639622A0
:103F10000B238C21A047404A0592404A404B069211
:103F2000404ADAF80010049304A8CDE90723CDE94C
:103F300009330B93C8470C23CDE90107BE22142196
:103F40002E480096A04705F19603CDE90063DC22D8
:103F50000B23142129480297A04705F1C803CDE996
:103F60000063F0220B23142124480297FA35A0475E
:103F7000CDE900650B234FF4827214211F4802978C
:103F8000A047294B02971A68284B1C4853F8223047
:103F90008C21CDE90063DC220B23A047244B1A7847
:103FA000244B45461B6802B19B00002601930096F6
:103FB0000B23F0228C211148A8471E2302931E4B8D
:103FC0000E48CDE900634FF482720B238C21A04789
:103FD0001A4B0A481421CDE9006302910B234FF4D8
:103FE000BE72A0470CB0BDE8F08700BFF11F04000F
:103FF000589A0020F50A0400BD68020040810020A4
:104000000509040008AC0400EFAF0400B09F0020D5
:10401000B49F0020FC800020F4AF0400FFAF040038
:10402000E8AF040015B00400C49F002030C00400B5
:10403000AC9F0020C89F002014810020D09F00204A
:10404000E0810020F11A0400590A040038B5054B3C
:10405000054D044640F8183BA84704F10800A8475E
:10406000204638BDE0AF04007523040008B503699D
:1040700013B10830014B984708BD00BF6927040001
:104080002DE9F041036A044613B118301B4B9847E1
:104090001B4D1C4F0121284604F12C06B8471A4B32
:1040A0003046984700212846B8472846174B98477E
:1040B0002846174B98472D7F6B1E5F425F41304665
:1040C000144B984739468046134B30469847B845BD
:1040D00002D03046114B98471DB10023A362BDE8C2
:1040E000F081A36A47F22F520A339342F6D9A562B0
:1040F00060680B4BBDE8F041184700BF692704001A
:104100004081002035090400B90F0400E5050400D2
:10411000850C0400651004006B1004007510040089
:10412000911A0400F0B5A5B02F4B03932F4B0293C7
:104130002F4B07932F4B069300214FF0FF33CDE910
:1041400008110A9320222C4B0BA898472B490AAB45
:1041500012AA43F8041F9342FBD1294B1393012366
:104160008DF8503008AD274B15930FCD16AC0FC40A
:104170000FCD0FC40FCD00270FC48DF851708DF8EF
:10418000527095E80300204E204B84E80300336012
:1041900003237360314604201D4B1E4C9847304664
:1041A0001D4B40F8083B6946A04716AD04A906F12F
:1041B0001800A0470FCD06F12C040FC40FCD0FC47B
:1041C0000FCD0FC495E8030084E80300134CB762D9
:1041D00004A8A0476846A047114A1249124B30462E
:1041E000984725B0F0BD00BF0D3E0400E93D040036
:1041F000553E0400F33D0400DDA00400B0B104000E
:1042000045110400FD3D0400AC890020C8A904004C
:10421000851A0400A9230400E0AF040075230400FC
:10422000008000204D400400B5A00400012A08BF12
:10423000016000207047012A08BF0160002070471C
:1042400010B90320014B1847704700BF911A0400B2
:1042500010B538B90448054B98470320044BBDE816
:104260001040184710BD00BF108A00202D98040090
:10427000911A040008B5054B9847054B02681A606F
:1042800042685A6082689A6008BD00BFF9970400CE
:10429000108A00202DE9F04F8D4BDFF88082DFF887
:1042A00080928C4F8C4E87B0012098478B498C4868
:1042B000C847D8F800108B48B8471E254FF4007443
:1042C000CDE901050E234622882185480094B04798
:1042D000D8F800108448B8470E23CDE90105AA227A
:1042E00088217F480094B047D8F800107F48B8472D
:1042F0000E23CDE901054FF4877288217848009498
:10430000B0477B4B7B4A19787B4B0094002908BF50
:104310001346CDE9013546220E23FC21704805964F
:10432000B0476F4D4FF0640A1FFA8AFB6FF07F4170
:1043300028460BF10D0800241FFA88F8C8470BF136
:104340001A07092128466D4B6D4EBFB29847424669
:104350002346282128460094B0473A462346E821C0
:1043600028460094B04767492846C8471021284688
:10437000654B984703212846604B984742462346A1
:10438000282128460094B04742462346E821284683
:104390000094B0473A462346282128460094B04767
:1043A0003A462346E82128460094B0474246234631
:1043B000402128460094B0473A46234640212846EB
:1043C0000094B04742462346702128460094B047E7
:1043D0003A462346702128460094B0474246234679
:1043E000A02128460094B0473A462346A0212846FB
:1043F0000094B04742462346D02128460094B04757
:104400003A462346D02128460094B0473F4A404FC1
:1044100064239AFBF3F3013B4FF0300852F823304A
:1044200008FB03F8A021284608F140080BF1130B04
:10443000B8471FFA88F802212846304B1FFA8BFB39
:10444000984723465A46414628460094B04731498A
:104450002846C84780212846B8470AF1640A0094D4
:1044600023465A4641462846B047BAF5C87F7FF4EE
:104470005BAF1F4B284D1A781849194805F13003D6
:10448000A24208BF1D46C847DFF854904FF01E08EF
:104490004FF40077A21002EB820204F00301CDF882
:1044A000088002EB820255F82430059E920001EB51
:1044B000410182320901CDE9007312B20D233E3170
:1044C00048460134B0470C2CE4D107B0BDE8F08F6A
:1044D000F11F0400F11A0400F50A0400BD6802008F
:1044E000408100202CB004004CB004006CB00400EB
:1044F000AC9F002090B004008CB00400CD080400F4
:10450000410904005E34010015090400108A0020EE
:1045100025090400B8F65E0004800020E081002038
:1045200005090400044A52F82030022B9CBF0133D5
:1045300042F82030704700BF108A002010B90220D6
:10454000014B1847704700BF2545040010B90120F2
:10455000014B1847704700BF2545040008B9014BBF
:104560001847704725450400034A52F8203013B11C
:10457000013B42F820307047108A002010B9022019
:10458000014B1847704700BF6945040010B901206E
:10459000014B1847704700BF6945040008B9014B3B
:1045A00018477047694504002DE9F043ADF5797D62
:1045B0009C4B17939C4B169300259C4B1393CDE972
:1045C0000E559B4B12939B4B00930EAA9A4E9B4FFA
:1045D0009B4BDFF8A88206CA7AA8B8470FCE6FAC0B
:1045E0000FC496E80F0084E80F006424954B0C95E7
:1045F0000D9400930CAAE826434606CA5EA8B84765
:10460000CDE90A64904B914C00930AAA234606CA4E
:1046100050A8B8474FF0C8098D4B0895CDF82490A5
:10462000009308AA434606CA42A8B847CDE90669DE
:10463000884B009306AA234606CA34A8B8474FF40D
:104640009679854B04950093CDF8149004AA4346BF
:1046500006CA26A8B847CDE90269804B009302AA92
:10466000234606CA18A87AACB8470FCC88AE0FC646
:104670000FCC0FC60FCC0FC64FF4D27394E80300D3
:104680006D934FF0FF336E93754B7793012386E85C
:1046900003006C95ADF8E031724B8DF8E2517993DF
:1046A0006CAC0FCC96AE0FC60FCC0FC60FCC0FC69E
:1046B00094E803005EAC86E803000FCCA4AE0FC6FE
:1046C0000FCC0FC60FCC0FC694E8030050AC86E8A1
:1046D00003000FCCB2AE0FC60FCC0FC60FCC0FC667
:1046E00094E8030042AC86E803000FCCC0AE0FC6CE
:1046F0000FCC0FC60FCC0FC694E8030034AC86E88D
:1047000003000FCCCEAE0FC60FCC0FC60FCC0FC61A
:1047100094E8030026AC86E803000FCCDCAE0FC69D
:104720000FCC0FC60FCC0FC694E8030018AC86E878
:1047300003000FCCEAAE0FC60FCC0FC60FCC0FC6CE
:1047400094E80300484C494BE36086E803000323E8
:1047500004F10C06236131460B20454B454F984729
:10476000454BE36014A904F11400B84710A904F103
:104770002400B847656388AD0FCD04F138070FC733
:104780000FCD0FC70FCD0FC795E8030096AD87E893
:1047900003000FCD04F170070FC70FCD0FC70FCD6A
:1047A0000FC795E80300A4AD87E803000FCD04F11F
:1047B000A8070FC70FCD0FC70FCD0FC795E8030090
:1047C000B2AD87E803000FCD04F1E0070FC70FCDAE
:1047D0000FC70FCD0FC795E8030087E80300C0AFF0
:1047E0000FCF04F58C750FC50FCF0FC50FCF0FC5B9
:1047F00097E80300CEAF85E803000FCF04F5A87556
:104800000FC50FCF0FC50FCF0FC597E80300DCAF63
:1048100085E803000FCF04F5C4750FC50FCF0FC592
:104820000FCF2DE0754204002D4204009542040094
:104830003742040041420400ACA60400E12F04000A
:10484000451104009D4504005D450400DD1504008C
:104850008D4504004D4504007D4504003D450400A0
:104860007D14040051420400108A0020C8A90400ED
:10487000851A0400A923040000AC040039150400C3
:104880000FC597E8030085E80300EAAD0FCD04F5F6
:10489000E0740FC40FCD0FC40FCD0FC495E8030013
:1048A00084E80300064C10A8A04714A8A047054AB6
:1048B0000549064B304698470DF5797DBDE8F083F4
:1048C000752304000080002019290400B5A004000D
:1048D000004B1847A9450400012A08BF01600020C9
:1048E0007047012A08BF01600020704710B90620F8
:1048F000014B1847704700BF911A040010B90320FC
:10490000014B1847704700BF911A040010B5064BC1
:104910009847064B9847064B9847064B9847064BD7
:10492000BDE81040184700BF499504007D9604007B
:10493000A1960400D1960400F59604002DE9F043F9
:1049400001208DB0634BDFF8F491DFF8F481624F02
:10495000624C984762496348634B9847634A0592A3
:10496000634A644B0692644AD9F80010049304A881
:10497000CDE90723CDE909330B93C0471E26002557
:10498000CDE901060C235022142156480095A0477A
:104990000296CDE900570B236E2214215148A047FF
:1049A00007F132030296CDE9005382220B23142132
:1049B0004C48A04707F164030296CDE900539622C4
:1049C0000B2314214748A04707F196030296CDE92F
:1049D0000053AA220B2314214248C837A04702964D
:1049E000CDE900570B23BE2214213E48434FA04778
:1049F00002963A68424B3B4853F82230B421CDE945
:104A000000536E220B23A04702963A683D4B35486F
:104A100053F82230B421CDE9005382220B23A04762
:104A2000394B1A78394B46461B6802B19B0000256A
:104A30000193374F00950B239622B4212948B8479C
:104A4000344B28481B68AA22CDE90053B4210B231C
:104A5000B847314B23484FF01E08CDE90053CDF83D
:104A600008800B23BE22B421A0472C4A05922C4A71
:104A70002C4B06922C4AD9F80010049304A8CDE9D7
:104A80000723CDE909330B93B0470095CDE9010821
:104A90000C23E62214211348A047244A0592244AF5
:104AA000244B0692244AD9F80010049304A8CDE9B7
:104AB0000723CDE909330B93B0470095CDE90108F1
:104AC0000B234FF4827214210648A0470DB0BDE8B5
:104AD000F08300BFF11F0400849B0020F50A04004E
:104AE000BD6802004081002005090400F4AF040005
:104AF000CCB10400E8AF0400E7B10400C49F00207B
:104B000030C0040060C00400AC9F0020C89F00209B
:104B1000590A0400CC9F00200481002012B2040036
:104B20001CB20400FDB1040032B204006EB20400F5
:104B300095B204004BB20400B8B20400E08100203A
:104B4000F11A040038B5054B054D044640F8183BF2
:104B5000A84704F10800A847204638BDC4B10400A6
:104B60007523040008B5036913B10830014B984759
:104B700008BD00BF692704002DE9F14F036A044610
:104B800013B11830294B9847294DDFF8B880DFF86A
:104B9000B8900121284604F12C07C0473846C84781
:104BA00004F1640602212846C0473046C847002168
:104BB0002846C04728461F4BDFF89090DFF89080CA
:104BC000984728461C4B98472D7F6A1ED2F1000A51
:104BD00038464AEB020AC847514683463846C04722
:104BE000DA4513D1AB1E5F4230465F41C8473946B4
:104BF00081463046C0474F4502D030460F4B98475C
:104C000035B10023A36201B0BDE8F08F3E46F4E762
:104C1000A36A47F22F520A339342F3D96068084BD4
:104C2000A56201B0BDE8F04F184700BF6927040036
:104C300040810020E5050400850C04007510040087
:104C4000911A040035090400B90F0400651004002E
:104C50006B1004002DE9F041B2B0444B0393444B78
:104C60000293444B0793444B069300214FF0FF33CC
:104C7000CDE908110A932022404B0BA898474049E0
:104C80000AAB12AA43F8041F9342FBD13D4B139386
:104C900008AD3D4B15930FCD16AC0FC40FCD0FC40F
:104CA0000FCD00270FC44FF001088DF850808DF80C
:104CB00051708DF8527095E80300344E344B84E8FF
:104CC000030033600323736031460520314B324CBF
:104CD00098473046314B40F8083B6946A04716AD2F
:104CE00004A906F11800A0470FCD06F12C040FC44B
:104CF0000FCD0FC40FCD0FC495E803004FF4D2724F
:104D00004FF0FF33CDE92523254B264AB76284E8CF
:104D10000300249727932892234A2992234A2E930B
:104D2000CDE92C33CDE92A23214B2F93214BADF82C
:104D3000C0808DF8C270319324AD0FCD06F16404AC
:104D40000FC40FCD0FC40FCD0FC495E8030084E846
:104D50000300194C04A8A0476846A047174A184901
:104D6000184B3046984732B0BDE8F0810D49040039
:104D7000D94804003D490400E3480400DDA00400D4
:104D8000B0B1040045110400FD480400088C002067
:104D9000C8A90400851A0400A9230400C4B10400B2
:104DA000DDB20400EBB20400FBB204000DB304005A
:104DB0007D140400ED4804007523040000800020E9
:104DC000454B0400B5A00400012A08BF0160002083
:104DD0007047012A08BF0160002070472DE9F041AB
:104DE0000D4C0E4F0E4D7978012604F5A2703E70E1
:104DF000A847797804F5BE70A847314604F5DA7003
:104E0000A847314604F5F670A84704F5097005492E
:104E1000054BBDE8F0411847A48C002064800020B9
:104E20003B100400CCA604004110040070B5144CE3
:104E300080F001016170D1B163680C2BCCBF0122FD
:104E40000022E26001DD0C3B63600E4D0E48A84776
:104E500061780E4881F00101A8470D4D61780D4839
:104E6000A84761780C482B46BDE870401847E368B6
:104E7000002BEAD063680B2BE7DC0C33E4E700BFC0
:104E80006480002035100400588E0020908E002091
:104E90003B100400E88D0020208E00200B280346E4
:104EA0001CD8012000FA03F313F4256F14D15A071C
:104EB00014D58B0705D1642291FBF2F302FB131387
:104EC00043B94FF4C87391FBF3F003FB1010B0FA31
:104ED00080F040091C3070471E2070471F2070472B
:104EE00010B5A0B90A4A137814461BB19368013B68
:104EF0000BD493606369013B002B636107DCA169FC
:104F00002069044B9847606101E03B23936010BD2A
:104F1000648000209D4E040010B5A0B90A4A1378A1
:104F2000144623B1936801333B2B0BDC9360074B92
:104F3000A16920699847636901339842B8BF01238A
:104F4000636100E0906010BD648000209D4E04000D
:104F50002DE9F04F6B4B6C4C6C4FDFF8E8A1DFF89C
:104F6000E89185B00120984769496A48B847237895
:104F7000DAF80010002B00F0B7806748674DC8478B
:104F80004FF01E084FF4C066CDE901080E230096CD
:104F90005A2288215F48A8472378002B36D1DAF8B7
:104FA00000105F48DFF8A4B1C8470B23CDE9010822
:104FB000A422312157480096A8470B23A4225C2144
:104FC0005448CDF80880CDE9006BA847DAF8001006
:104FD0005448C8470B23CDE90108A42287214D4836
:104FE0000096A8470B23A422B2214A480096CDE997
:104FF00001B8A847DAF800104B48C8470096CDE939
:1050000001080B23A422DD214248A8476FF07F410D
:105010004048464E0025B84709213E48444B984732
:105020002B46E0220E213B480095B0472B464FF41B
:105030008172542137480095B0472B46E022642105
:1050400034480095B0472B4600954FF48172AA2151
:105050003048B04723780BB163786BB10023E0226E
:10506000BA212C480095B047009500234FF4817277
:105070004FF480712748B04723782648002B14BF8F
:10508000002503250021B84704EB85034FF4C066D3
:105090005B680193F4220B2331211E48254F0096B3
:1050A000B84704EB8503F4229B681A48CDE90063F6
:1050B00087210B23B8472378C3B163788BB104EB06
:1050C00085041D4AE1681D4B0096002908BF134660
:1050D0001E22CDE90132DD210B23F4220D480F4CB5
:1050E000A04705B0BDE8F08F154847E704EB8504FD
:1050F000F422E3680748CDE90063DD210B23B847BC
:10510000EFE700BFF11F04006480002005090400E0
:10511000BD6802004081002030B30400F50A04009D
:1051200070B3040090B30400B0B30400410904005C
:10513000CD080400590A0400D0B3040007B40400E9
:1051400050B30400E0810020F11A0400D3B304003E
:1051500010B538B90B4B1A781C4622B1DA6882F0C8
:105160000102DA6010BD9B692069013B48BF6323DF
:10517000A361A169044B984763698342D4BF63610B
:105180006061EFE7648000209D4E040010B530B9E7
:105190000B4C237823B1E36883F00103E36010BD77
:1051A000A169206901316329C8BF1946054BA16176
:1051B000984763698342D4BF63616061EFE700BFD2
:1051C000648000209D4E040010B560B9104B1A7821
:1051D0001C466AB15A685978013A5A6021B1002ACE
:1051E00001DC0C225A6010BD002AFCDA1722F9E714
:1051F0001B69A169013B002BD8BF0C2323612069E7
:10520000044B984763698342D4BF63616061EAE7F6
:10521000648000209D4E040010B560B9104B1A78D0
:105220001C466AB15A68597801325A6021B10C2A79
:1052300001DD01225A6010BD172AFCDD5960FAE732
:105240001B69A16901330C2BC8BF012323612069AD
:10525000044B984763698342D4BF63616061EAE7A6
:10526000648000209D4E040070B50546002830D1B2
:10527000184C23789BB120700121174C1748A04788
:1052800001211748A04729461648A0472946164835
:10529000A04716491648174BBDE870401847164DF1
:1052A00021692E681548D4E90523B047637853B1C6
:1052B0002D6861681248D4E90223A8470320114BE6
:1052C000BDE8704018472B680F48D4E90112984791
:1052D000F4E770BD648000203B100400E88D0020DE
:1052E000208E0020588E0020908E0020ACA6040056
:1052F000C88E002041100400549A0020D5B3040049
:10530000E4B30400911A0400F3B3040010B90120BF
:10531000014B1847704700BF2D4E040008B9014BE0
:10532000184770472D4E040038B9044B1B780BB951
:10533000034B18470320034B184770476480002035
:10534000DD4D0400911A040070B5134C134E144D3A
:10535000144801232370637033689847A84760603E
:10536000A847A060A847A8470128E060CCBF00205C
:105370000120336860700C489847A8472061A8470F
:105380006061A847094BA06198476078084B80F09E
:105390000100BDE87040184764800020549A002046
:1053A0001D950400FEB3040001B40400DD4D0400AB
:1053B0002D4E040038B5054B054D044640F8183B0A
:1053C000A84704F10800A847204638BD28B30400C8
:1053D0007523040038B5202204460D46074B0021F2
:1053E0009847234604F1200243F8045B216843F800
:1053F000041B9342FAD1204638BD00BFDDA0040053
:105400002DE9F04FADF2045DA34B1793A34B169318
:105410000025A34B1393CDE90E55A24B1293A24B3B
:1054200000930EAAA14CA24BDFF8D492A14F0E26F6
:105430004FF0BE0B06CAA6A8A047CDE90C6B9E4B49
:1054400000930CAA4B4606CA98A8A0474FF483784D
:105450009A4B0A96CDF82C8000930AAA3B4606CABE
:105460004FF0640A8AA8A047CDE908AB944B00939B
:1054700008AA4B4606CA7CA8A047CDE906A8914BCE
:10548000009306AA3B4606CA4FF0BA0A6EA8A04788
:10549000CDE904AB8C4B009304AA4B4606CA60A826
:1054A000A047CDE902A8894B009302AA3B4606CA51
:1054B00052A8A047DFF84C82854920A820ACC047FD
:1054C0000FCC47AF0FC794E80F0018AC87E80F0068
:1054D000804918A8C0470FCC39AF0FC794E80F0018
:1054E00087E80F007C4FDFF820E20FCF2BAC0FC412
:1054F00097E80F0084E80F00A6AC0FCCB4AF0FC73D
:105500000FCC0FC70FCC0FC794E8030098AC87E807
:1055100003000FCCC2AF0FC70FCC0FC70FCC0FC704
:1055200094E803008AAC87E803000FCCD0AF0FC724
:105530000FCC0FC70FCC0FC794E803007CAC87E8F3
:1055400003000FCCDEAF0FC70FCC0FC70FCC0FC7B8
:1055500094E803006EAC87E803000FCCECAF0FC7F4
:105560000FCC0FC70FCC0FC794E8030060AC87E8DF
:1055700003000FCCFAAF0FC70FCC0FC70FCC0FC76C
:1055800094E8030052AC87E803000FCC0DF5846764
:105590000FC70FCC0FC70FCC0FC794E803004FF015
:1055A000FF3C87E803004FF0780801274B4BCDF80C
:1055B0003CE1CDF818C18DF84251ADF840715193DE
:1055C0004496CDF8148144AC0FCC0DF58B660FC614
:1055D0000FCC0FC60FCC0FC6862394E80300CDE98D
:1055E00036383F4BCDF804E1CDF8E0C08DF80A51D4
:1055F000ADF80871439336AC86E803000FCC0DF587
:1056000092660FC60FCC0FC60FCC0FC64FF4D273E5
:10561000CDE9293C94E80300324B3393324B8DF8AB
:10562000D250ADF8D0703593289528AC86E80300A9
:105630000FCC0DF599660FC60FCC0FC60FCC0FC659
:1056400094E8030086E80300284E294B33600323C7
:10565000736031460820274B274C98473046274B2C
:1056600040F8083B14A9A04710A906F11800A0476C
:10567000B4AC0FCCB56206F12C050FC50FCC0FC52D
:105680000FCC0FC594E80300C2AC85E803000FCC33
:1056900006F164050FC539E049530400C94D040003
:1056A000514F0400D34D040029530400E12F04009E
:1056B000451104003117040019520400C9510400B7
:1056C000194F0400E14E04008D51040051510400B3
:1056D00004B404000AB40400CCA604001D53040062
:1056E0000D5304007D14040069520400A48C0020B2
:1056F000C8A90400851A0400A923040028B30400E3
:1057000081160400D5530400E11704000FCC0FC527
:105710000FCC0FC594E80300D0AC85E803000FCC94
:1057200006F19C050FC50FCC0FC50FCC0FC594E833
:105730000300DEAC85E803000FCC06F1D4050FC5ED
:105740000FCC0FC50FCC0FC594E80300ECAC85E877
:1057500003000FCC06F586750FC50FCC0FC50FCC17
:105760000FC594E80300FAAC85E803000FCC06F5FA
:10577000A2750FC50FCC0FC50FCC0FC594E8030061
:1057800085E803000DF584650FCD06F5BE740FC4E2
:105790000FCD0FC40FCD0FC495E803000DF58B6539
:1057A00084E803000FCD06F5DA740FC40FCD0FC4E3
:1057B0000FCD0FC495E803000DF5926584E8030052
:1057C0000FCD06F5F6740FC40FCD0FC40FCD0FC467
:1057D00095E803000DF5996584E803000FCD06F503
:1057E00009740FC40FCD0FC40FCD0FC495E803008B
:1057F00084E80300064C10A8A04714A8A047054A57
:105800000549064B304698470DF2045DBDE8F08F20
:105810007523040000800020B5530400B5A00400E7
:1058200008B5036913B10830014B984708BD00BFA4
:10583000692704002DE9F14F036A044613B11830BB
:10584000264B984704F12C05DFF8A880DFF8A890D4
:105850002F460126F1B22248C04701363846C847D4
:105860000B2E07F13807F5D100211D48DFF88CB069
:10587000DFF88CA0C0471A481A4B98471A4B1848B3
:105880009847174B1F7F00260136BB1BD3F100083A
:10589000284648EB0308D847414681462846D0476A
:1058A000C14503D02846114B984703E00A2E05F165
:1058B0003805E9D127B10023A36201B0BDE8F08F1C
:1058C000A36A47F22F520A339342F5D96068084B16
:1058D000A76201B0BDE8F04F184700BF6927040078
:1058E00040810020E5050400850C040075100400CB
:1058F000911A040035090400B90F04006510040072
:105900006B100400004B1847015404000B29CCBF56
:10591000A1F10C030B46002B10B508BF0C230A2481
:1059200093FBF4F272B13032027193FBF4F204FB98
:10593000123330330B294371CCBF50234123837181
:10594000043010BD2022EFE7012A08BF01600020CB
:105950007047012A08BF016000207047054B1A7884
:105960000AB15B781BB904490448054B184705493F
:10597000FAE700BF008F0020ACA60400D88F0020FB
:1059800041100400CCA6040070B5124C124D204604
:1059900010F8681B81F00101A847237894F8F011F2
:1059A00083F00103194004F1A000A847217804F511
:1059B0008870A847217804F5A470A847217804F5D9
:1059C000C070A847217804F5DC70A847034BBDE8F8
:1059D00070401847008F00203B1004005D59040000
:1059E00010B5074C074B94F8F01104F16800984784
:1059F00094F8F011044B04F1A000BDE810401847E2
:105A0000008F0020351004003B10040080B9094BC2
:105A10005A78002A0CBF082200221344D3F8F4213C
:105A2000162A03D80132C3F8F4217047C3F8F401F1
:105A3000704700BF008F002060B9084B5A78002AD9
:105A40000CBF082200221344D3F8F4211AB1013A02
:105A5000C3F8F42170471722FAE700BF008F002037
:105A600080B9094B5A78002A14BF04220C2213442F
:105A7000D3F8F421162A03D80132C3F8F421704771
:105A8000C3F8F401704700BF008F002060B9084BD5
:105A90005A78002A14BF04220C221344D3F8F421AC
:105AA0001AB1013AC3F8F42170471722FAE700BF90
:105AB000008F002010B5B0B90B4B1A781C4632B1DC
:105AC0005A7822B15870BDE81040084B1847084872
:105AD000084B984794F8F001074B98470320074B71
